:10116C0070617373776F72643A20202020202020E6
:10117C00003D3D3D436F646564204C6F636B3D3DAA
:10118C003D002020202020206F70656E2020202024
:10119C00202000526573657450617373776F7264AD
:1011AC004F4B2000496E69742070617373776F72B6
:1011BC00642E2E2E003D3D4D6F6465205365747476
:1011CC00696E673D3D002D4368616E676520506117
:1011DC007373776F7264002D416464204E657720C1
:1011EC0055736572202020006572726F722C7472B8
:1011FC007920616761696E21005761726E3A4120F6
:10120C004C656E7468206F66200070617373776F25
:10121C0072642069732073697800696E707574202C
:10122C00616761696E2020202020003D41646D695A
:10123C006E6973747261746F722020003D3D4F6C47
:10124C00642050617373776F72643D3D003D3D4E79
:10125C0065772050617373776F72643D3D002D503C
:10126C00617373776F72642065786973747300416E
:10127C006464696E67207375636365656465640097
:10128C003D3D3D3D5549206C6F636B65643D3D3D77
:01129C000051
:1015F800015600016700015800015900014E000121
:051608004F00015A0033
:100003001215DF7BFF7A1179B01214D37BFF7A11BB
:10001300796C1214F8E56770047F0180027F00E5B4
:100023004F70047E0180027E00EE5F7003020120A8
:1000330075270075280075294F752A00752B0075E3
:100043002C5A752D00752E00752F61753000753192
:100053000075324E7B007A007967120D1775270001
:1000630075280075294E752A11752B6C752C007532
:100073002D00752E617B007A00795A12129DE54E90
:10008300640370047F0180027F00E55AC394057402
:1000930080948050047E0180027E00EE5F602EE437
:1000A300F54EF55A7BFF7A1279051214D37BFF7A4A
:1000B3001279161214F87F0112151D7BFF7A11793C
:1000C300B01214D37BFF7A11796C1214F8E54E64E5
:1000D3000370047F0180027F00E55AC39405748096
:1000E300948040047E0180027E00EE5F7003020074
:1000F30018756701E4F55A0556F54E785B7C00FDEB
:10010300FB7A007961FE7F06121041E4F54FFB7A1A
:10011300007961752806FD12141B020018E54F6073
:10012300030204317BFF7A11797D1214D37BFF7AAA
:1001330011796C1214F8E567640170047F01800281
:100143007F00E54F70047E0180027E00EE5F700346
:1001530002043175270075280075294F752A00752B
:100163002B00752C5A752D00752E00752F61753077
:100173000075310075324E7B007A007967120D17D6
:1001830075270075280075294E752A11752B6C7516
:100193002C00752D00752E617B007A00795A12129E
:1001A3009DE54E640370047F0180027F00E55AC31E
:1001B30094057480948050047E0180027E00EE5F7B
:1001C300602EE4F54EF55A7BFF7A1279051214D3AB
:1001D3007BFF7A1279161214F87F0112151D7BFF2B
:1001E3007A11797D1214D37BFF7A11796C1214F88A
:1001F300E54E640370047F0180027F00E55AC394D7
:10020300057480948040047E0180027E00EE5F705E
:1002130003020139E4F522E522C39556505B7B00C6
:100223007A007950E5561475F006A4FD7528061278
:1002330013C0E4F523C3E523940674809480502F00
:1002430074612523F8E6FE74502523F8E6B5060508
:100253007558018005E4F5588015E5232449FFEE20
:10026300FD7C001215417F0112151D052380C6E593
:1002730058640160040522809EE558600302040966
:10028300C2A17FC8121468D2A17BFF7A1179F4123C
:1002930014F805597F0112151D7BFF7A11796C1231
:1002A30014F8E559640360030204277BFF7A12798B
:1002B3008C1214D375270075280075294F752A00F1
:1002C300752B00752C5A752D00752E00752F6175D1
:1002D300300075310075324E7B007A007967120D5C
:1002E3001775270075280075294E752A11752B6C13
:1002F300752C00752D00752E617B007A00795A12DA
:10030300129DE54E640370047F0180027F00E55A6D
:10031300C394057480948050047E0180027E00EEB5
:100323005F602EE4F54EF55A7BFF7A1279051214BD
:10033300D37BFF7A1279161214F87F0112151D7BF5
:10034300FF7A11797D1214D37BFF7A11796C121421
:10035300F8AF4E7E00EF640370047D0180027D00E0
:10036300E55AFB7A00C394057480948040047C01B1
:1003730080027C00EC5D70030202A5EF64034E7003
:10038300047F0180027F00C3EB9405EA64809480BC
:1003930040047E0180027E00EE5F60437B007A00B2
:1003A3007950752806E4FD1213C0E4F523C3E52351
:1003B300940674809480501E745B2523F8E6FF74C2
:1003C300502523F8E6B507057558018005E4F5586F
:1003D3008004052380D7E558640170030202A5E574
:1003E30058701D7BFF7A1179F41214F87F011215EE
:1003F3001D7BFF7A11796C1214F8E4F54E02035455
:10040300E4F5590203547BFF7A11798E1214F8C272
:10041300B67F0112151D7BFF7A11796C1214F8D285
:10042300B6E4F559E4F54EF55AF558020139E54FAE
:1004330064016003020774E54F64016003020774FB
:100443007BFF7A1179C11214D37BFF7A1179D2120F
:1004530014F875270075280075294F752A00752B28
:1004630000752C5A752D00752E00752F617530009F
:1004730075310075324E7B007A007967120D17E5EE
:100483004E640370B2F54E7BFF7A1279481214D38F
:100493007BFF7A11796C1214F8E54E640370030242
:1004A300076C75270075280075294F752A00752B71
:1004B30000752C5A752D00752E00752F617530004F
:1004C30075310075324E7B007A007967120D17E59E
:1004D3005A70047F0180027F00E54E640270047E3F
:1004E3000180027E00EE5F6009754E03754F017552
:1004F3005A6175270075280075294E752A11752BC9
:100503006C752C00752D00752E617B007A00795A6D
:1005130012129DE54E640370047F0180027F00E5A3
:100523005AC394057480948050047E0180027E0037
:10053300EE5FFFE55A646160047E0180027E00EE97
:100543005F602EE4F54EF55A7BFF7A12790512149B
:10055300D37BFF7A1279161214F87F0112151D7BD3
:10056300FF7A1279481214D37BFF7A11796C121433
:10057300F8E54E640370047F0180027F00E55AC3EF
:1005830094057480948040047E0180027E00EE5FB7
:10059300FFE55A646160047E0180027E00EE5F70B5
:1005A3000302049CE4F522E522C3955650517B00D7
:1005B3007A007950E55675F006A4FD7528061213E6
:1005C300C0E4F523C3E52394067480948050267415
:1005D300612523F8E6FF74502523F8E6B5070D756A
:1005E3005801E55675F006A4F5578005E4F55880E3
:1005F30004052380CFE55864016004052280A8E543
:1006030058701F7BFF7A1179F41214F87F011215C9
:100613001D7BFF7A11796C1214F8E4F54EF55A023A
:10062300049CE4F54EF5587BFF7A1279591214D3E2
:100633007BFF7A11796C020766E54E64037003024F
:10064300049C75270075280075294F752A00752BA2
:1006530000752C5A752D00752E00752F61753000AD
:1006630075310075324E7B007A007967120D17E5FC
:100673005A70047F0180027F00E54E640270047E9D
:100683000180027E00EE5F6009754E03754F0175B0
:100693005A6175270075280075294E752A11752B27
:1006A3006C752C00752D00752E617B007A00795ACC
:1006B30012129DE54E640370047F0180027F00E502
:1006C3005AC394057480948050047E0180027E0096
:1006D300EE5FFFE55A646160047E0180027E00EEF6
:1006E3005F602EE4F54EF55A7BFF7A1279051214FA
:1006F300D37BFF7A1279161214F87F0112151D7B32
:10070300FF7A1279591214D37BFF7A11796C121480
:10071300F8E54E640370047F0180027F00E55AC34D
:1007230094057480948040047E0180027E00EE5F15
:10073300FFE55A646160047E0180027E00EE5F7013
:100743000302063C756701E4F55AF54EF54EF54F85
:10075300FB7A007961752806AD5712141B7BFF7A6B
:1007630011799F1214F802063CE4F54EF55A02047F
:100773003AE54F64026003020018E54F6402600328
:100783000200187BFF7A1179C11214D37BFF7A110F
:1007930079E31214F875270075280075294F752A17
:1007A30000752B00752C5A752D00752E00752F6161
:1007B30075300075310075324E7B007A007967120F
:1007C3000D17E54E640370B2F54E7BFF7A1279374D
:1007D3001214D3E556FD7C007F0E1215417B007A7F
:1007E30000793D7F0F12148502097DE54E64037085
:1007F300030209B375270075280075294F752A0070
:10080300752B00752C5A752D00752E00752F61758B
:10081300300075310075324E7B007A007967120D16
:1008230017E55A70047F0180027F00E54E64027071
:10083300047E0180027E00EE5F6009754E03754FF2
:1008430002755A6175270075280075294E752A119E
:10085300752B6C752C00752D00752E617B007A004D
:10086300795A12129DE54E640370047F0180027F62
:1008730000E55AC394057480948050047E0180027D
:100883007E00EE5FFFE55A646160047E0180027EB4
:1008930000EE5F6043E4F54EF55A7BFF7A1279056B
:1008A3001214D37BFF7A1279161214F87F011215F2
:1008B3001D7BFF7A1279371214D3E556FD7C007F36
:1008C3000E1215417B007A00793D7F0F1214857B50
:1008D300FF7A11796C1214F8E54E640370047F01FA
:1008E30080027F00E55AC394057480948040047E9F
:1008F3000180027E00EE5FFFE55A646160047E01C1
:1009030080027E00EE5F70030207EEE4F522E5222B
:10091300C3955650517B007A007950E55675F00621
:10092300A4FD7528061213C0E4F523C3E52394063A
:1009330074809480502674612523F8E6FF74502553
:1009430023F8E6B5070D755801E55675F006A4F5CD
:10095300578005E4F5588004052380CFE5586401EA
:100963006004052280A8E5586401701A7BFF7A129F
:10097300796A1214F87F0112151D7BFF7A11796CC5
:100983001214F80207EEE4F54FF55A0556FB7A0008
:100993007961E55675F006A4FD75280612141B7BD4
:1009A300FF7A12797B1214F87F0112151D0207EEEC
:0809B300E4F54EF55A02077D40
:03165F00256400FF
:0B145D008F807F05121468D2A77F0566
:10146800EFD394007480948040127E70EED3940081
:0C1478007480948040031E80F31F80E409
:011484002245
:10151D00AD07EDD394007480948040177C0AECD312
:10152D0094007480948040087F641214681C80EECF
:03153D001D80DF2F
:011540002288
:0C162300C2A7C2A6C2A512145DC2A72275
:0C162F00C2A7C2A6D2A512145DC2A72259
:1015DF007F381216237F0C1216237F061216237FD5
:0915EF00011216237F800216236D
:0614D3008B248A25892606
:1014D9007F80121623E4FDAB24AA25A9268D8275E7
:0E14E9008300121080FF600612162F0D80E99E
:0114F70022D2
:0614F8008B2F8A308931C0
:1014FE007FC0121623E4FDAB2FAA30A9318D827561
:0E150E008300121080FF600612162F0D80E978
:01151C0022AC
:061485008B3A8A3B893C12
:10148B00EF2480FF121623E4FDAB3AAA3BA93C8D57
:10149B0082758300121080FF600612162F0D80E9F3
:0114AB00221E
:021541008F2FEA
:10154300753DFF753E16753F5F8C408D417B007A7C
:10155300007930120A177B007A007930AF2F02141A
:011563008502
:021662002A005C
:060D17008B248A258926C9
:100D1D00E4F5337590F0AF90EF64F07003020E00C0
:100D2D007F03121468AF90EF64F07003020E00752C
:100D3D0090F0AF90EF2450604A24E0607B24F07077
:100D4D0003020DFD24706003020E00AB2AAA2BA92D
:100D5D002C121067C39406748094804003020E0019
:100D6D00AB30AA31A9327401121102AB2AAA2BA9F8
:100D7D002C121067AB2DAA2EA92FF5827583007446
:100D8D00078068AB2AAA2BA92C121067C39406748E
:100D9D00809480505EAB30AA31A9327401121102D9
:100DAD00AB2AAA2BA92C121067AB2DAA2EA92FF5B1
:100DBD008275830074048033AB2AAA2BA92C1210E0
:100DCD0067C39406748094805029AB30AA31A93240
:100DDD007401121102AB2AAA2BA92C121067AB2D8C
:100DED00AA2EA92FF58275830074011211148003A8
:100DFD0075330175900FAF90EF640F7003020F54B0
:100E0D007F03121468AF90EF640F7003020F5475D7
:100E1D00900FAF90EF24F5605324FE7003020ECABD
:100E2D00147003020EFF24076003020F54E53364B0
:100E3D0001700BAB30AA31A9327403020F51AB2AEA
:100E4D00AA2BA92C121067C39406748094804003BA
:100E5D00020F54121067FFAB2DAA2EA92FF5827524
:100E6D0083001210808F827583008039AB2AAA2BE4
:100E7D00A92C121067C39406748094804003020F4E
:100E8D0054AB30AA31A93274011211026533AB2A69
:100E9D00AA2BA92C7015121067AB2DAA2EA92FF510
:100EAD0082758300E4121114020F54121067AB2DDA
:100EBD00AA2EA92FF58275830074018030E5336465
:100ECD0001700AAB30AA31A93274028077AB2AAA1D
:100EDD002BA92C121067FFC3940674809480506761
:100EED00AB2DAA2EA92F8F8275830074021210CFFD
:100EFD008055AB2AAA2BA92C12106770047F018094
:100F0D00027F00E533640170047E0180027E00EFF4
:100F1D005EFFAB24AA25A926121067640170047E1A
:100F2D000180027E00EE5F6014AB27AA28A9297408
:100F3D00011210AD1210676403700C8007AB30AA5C
:100F4D0031A932E4121102AF90EF640760F9AF904E
:100F5D00EF640B60F2AF90EF640D60EBAF90EF6458
:030F6D000E60E42F
:010F7000225E
:10129D008B248A258926AB27AA28A92912106764D1
:1012AD0001705AAB24AA25A926121067FED3940605
:1012BD00748094805032EE2449FFAB2CAA2DA92EB8
:1012CD008E82758300121080FD7C001215417FFA0D
:1012DD00121468AB24AA25A9261210672449FF7B96
:1012ED00FF7A167962121485AB24AA25A9267401FA
:1012FD001210ADAB27AA28A929E4121102AB27AA17
:10130D0028A9291210676402701CAA2AA92B7BFF39
:10131D001214F8AB24AA25A926E4121102AB27AAB0
:07132D0028A9291211022278
:101585007F01EFD394007480948040127E01EED3E6
:0E15950094007480948040031E80F31F80E455
:0115A3002225
:0C163B00D2B5D2B4121585C2B5021585D7
:0C164700C2B5D2B4121585D2B5021585CB
:1015C300E4FDD2B412158530B50DEDC394FA7480E1
:0C15D300948050030D80F0C2B402158516
:0C165300D2B4121585D2B5C2B4021585C0
:08160E0012163B7FA01215A487
:0D161600D2B5D2B4A2B592D5C2B4A2D522ED
:1015A400E4FEEEC3940874809480500EEF5480706F
:0E15B40004C2B58002D2B50E80E8D2B4C2B433
:0115C2002206
:10156400E4FFD2B5FEEEC39408748094805011D287
:10157400B4EF25E0FFA2B5E4334FFFC2B40E80E51B
:011584002244
:06141B008B248A258926BE
:1014210012160EAF281215A4121616E4FCECC39D79
:101431005018AB24AA25A9268C827583001210802E
:10144100FF1215A41216160C80E3121647E4FFFED4
:0B1451000FBF00010EBE03F8BFE8F55E
:01145C00226D
:0813C0008B248A2589268D2764
:1013C80012160EAF281215A412161612163B7FA17C
:1013D8001215A4121616E4FCE52714FFECC39F505F
:1013E80018121564AB24AA25A9268C82758300EFF0
:1013F8001211141215C30C80DF121564AB24AA2530
:10140800A926AE048E82758300EF121114121653AA
:0314180002164772
:03000000021334B4
:0C133400787FE4F6D8FD75816702137B1A
:100F7100E709F608DFFA8046E709F208DFFA803E62
:100F810088828C83E709F0A3DFFA8032E309F6084F
:100F9100DFFA8078E309F208DFFA807088828C83B7
:100FA100E309F0A3DFFA806489828A83E0A3F6086B
:100FB100DFFA805889828A83E0A3F208DFFA804C45
:100FC10080D280FA80C680D4806980F2803380101C
:100FD10080A680EA809A80A880DA80E280CA803385
:100FE10089828A83ECFAE493A3C8C582C8CCC583FD
:100FF100CCF0A3C8C582C8CCC583CCDFE9DEE780CD
:101001000D89828A83E493A3F608DFF9ECFAA9F04B
:10101100EDFB2289828A83ECFAE0A3C8C582C8CCA1
:10102100C583CCF0A3C8C582C8CCC583CCDFEADEBA
:10103100E880DB89828A83E493A3F208DFF980CC1C
:1010410088F0EF60010E4E60C388F0ED2402B40415
:101051000050B9F582EB2402B4040050AF232345BC
:061061008223900FC17311
:10106700BB010689828A83E0225002E722BBFE0287
:09107700E32289828A83E49322BA
:10108000BB010CE58229F582E5833AF583E0225025
:1010900006E92582F8E622BBFE06E92582F8E2226F
:0D10A000E58229F582E5833AF583E4932289
:1010AD00BB010989828A83F8E028F022500327F7D3
:1010BD0022BBFE05F8E328F3228A838982F8E493A4
:0210CD002822D7
:1010CF00BB010FF8E58229F582E5833AF583E02825
:1010DF00F0225009C58229F8E58226F622BBFE09C7
:1010EF00C58229F8E22582F222F8EA2583F583E901
:0310FF0093282211
:10110200BB010689828A83F0225002F722BBFE01CC
:02111200F322C6
:10111400F8BB010DE58229F582E5833AF583E8F011
:10112400225006E92582C8F622BBFE05E92582C8BD
:02113400F222A5
:1009BB00E549243DF8E6054922783A300702783DAF
:1009CB00E475F0011211360210672000EB7F2ED276
:1009DB00008018EF540F2490D43440D4FF30040B14
:1009EB00EF24BFB41A0050032461FFE54A600215DF
:1009FB004A054DE54D7002054C30070D783AE4750C
:100A0B00F001121136EF0211020214AC7403D2077B
:100A1B008003E4C207F5498B3A8A3B893CE4F54AEB
:100A2B00F54CF54DE54A60077F201209F680F57508
:100A3B004BFFC201C200C202C203C205C206C208FA
:100A4B001209C4FF700D3007057F00120A07AF4D66
:100A5B00AE4C22B4255FC2D5C2041209C4FF24D008
:100A6B00B40A00501A75F00A784A30D50508B6FF5B
:100A7B000106C6A426F620D5047002D20380D92421
:100A8B00CFB41A00EF5004C2E5D204020C07D20116
:100A9B0080C6D20080C0D20280BCD2D580BAD2052B
:100AAB0080B47F201209F62002077401B54A00407A
:100ABB00F11209BBFF1209F6020A2FD208D20680E7
:100ACB00951209BBFB1209BBFA1209BBF94A4B7011
:100ADB000679D87A0C7BFF20022EE54A602A7E002D
:100AEB008E8275830012108060060EEE654B70F0DF
:100AFB00C2D5EBC0E0EAC0E0E9C0E0EE120C4ED08C
:100B0B00E0F9D0E0FAD0E0FB121067FF60AAEBC06F
:100B1B00E0EAC0E0E9C0E01209F6D0E02401F9D028
:100B2B00E03400FAD0E0FBE54B0460DCD54BD98018
:100B3B00877BFF7A0C794AD202809C7910800279EC
:100B4B0008C206C2088008D2D5790A8004790AC285
:100B5B00D5E54B047002F54BE4FAFDFEFF1209BB21
:100B6B00FC7B082001131209BBFD7B1030000A121D
:100B7B0009BBFE1209BBFF7B20EC3382D592D5500B
:100B8B0013C3E43000069FFFE49EFEE42001039DA7
:100B9B00FDE49CFCE4CBF8C201EC700CCFCECDCCC9
:100BAB00E824F8F870F38017C3EF33FFEE33FEED54
:100BBB0033FDEC33FCEB33FB994002FB0FD8E9EB35
:100BCB00300105F8D0E0C448B201C0E00AEC4D4E4C
:100BDB004F78207B0070C2EAB54B0040BCC0E012DE
:100BEB000C50D0F0D0E0200104C4C0E0C4B201C06E
:100BFB00F01209DFD0F0D5F0EB020A2F1211460AE2
:100C0B00CC530B46580A9D4C0A99420B4A4F0B5238
:0F0C1B00440B52490AB2430B58550B3C460B3C55
:100C2A00450B3C470CF8500AA12D0AA52E0AC82BE1
:100C3A000AA9230AC6200CE12A0A614800000AC050
:100C4A003F3F3F00790AA2D5200314300509B910A5
:100C5A00020404B9080104A2D520060250010420A6
:100C6A0002689202B54A005034C0E07F203003196E
:100C7A007F30A20272067205500F120CA7C202C27E
:100C8A0006C205C2087F30800F300503E9C0E012B2
:100C9A0009F6300503D0E0F9D0E0B54ACC300517A3
:100CAA007F30B9100C1209F67F583004077F78801C
:100CBA0003B908031209F63002057F2D0209F67FEF
:100CCA00202008F87F2B2006F322920280CF286E7C
:100CDA00756C6C2900D2011209BB3001F8C2017887
:100CEA004A30D50108F6020A612D504349581209C3
:100CFA00BB2403B405004001E4900CF3931209E706
:0D0D0A00743A1209E7D203754A04020B4641
:10134000020003E493A3F8E493A34003F68001F2C0
:1013500008DFF48029E493A3F85407240CC8C333AE
:10136000C4540F4420C8834004F456800146F6DF7D
:10137000E4800B01020408102040809015F8E47E00
:10138000019360BCA3FF543F30E509541FFEE49372
:10139000A360010ECF54C025E060A840B8E493A339
:1013A000FAE493A3F8E493A3C8C582C8CAC583CA64
:1013B000F0A3C8C582C8CAC583CADFE9DEE780BE1C
:01160D0000DC
:10113600FAE6FB0808E6F925F0F618E6CA3AF622BA
:10114600D083D082F8E4937012740193700DA3A338
:1011560093F8740193F5828883E47374029368604C
:06116600EFA3A3A380DF4C
:1014AC00EFB40A07740D1214B7740A309811A89986
:1014BC00B8130CC2983098FDA899C298B811F630A0
:0714CC0099FDC299F5992278
:00000001FF
