:100FC2003D0070617373776F72643A202020202095
:100FD2002020003D3D3D436F646564204C6F636B90
:100FE2003D3D3D002020202020206F70656E202096
:100FF2002020202000526573657450617373776FEF
:1010020072644F4B2000496E69742070617373776C
:101012006F72642E2E2E003D3D4D6F646520536528
:101022007474696E673D3D002D4368616E6765208B
:1010320050617373776F7264002D416464204E6552
:10104200772055736572202020006572726F722CB2
:1010520074727920616761696E21005761726E3A1C
:1010620041204C656E7468206F6620007061737356
:10107200776F72642069732073697800696E707586
:101082007420616761696E2020202020003D416448
:101092006D696E6973747261746F722020003D3DD8
:1010A2004F6C642050617373776F72643D3D003DF5
:1010B2003D4E65772050617373776F72643D3D00DA
:1010C2002D50617373776F726420657869737473DE
:1010D20000416464696E6720737563636565646566
:1010E20064003D3D3D3D5549206C6F636B65643D39
:0310F2003D3D0081
:10148200016D00017E00016F000170000165000125
:0514920066000171007D
:100003001214387BFF7A1079081213657BFF7A0F7D
:1000130079C412138AE57E70047F0180027F00E5B4
:100023006670047E0180027E00EE5F700302012091
:10003300752700752800752966752A00752B0075CC
:100043002C71752D00752E00752F78753000753164
:10005300007532657B007A00797E1209C07527002E
:10006300752800752965752A0F752BC4752C0075C5
:100073002D00752E787B007A0079711210F5E565F5
:10008300640370047F0180027F00E571C3940574EB
:1000930080948050047E0180027E00EE5F602EE437
:1000A300F565F5717BFF7A10795D1213657BFF7A35
:1000B30010796E12138A7F011213D47BFF7A1079A1
:1000C300081213657BFF7A0F79C412138AE56564FE
:1000D3000370047F0180027F00E571C3940574807F
:1000E300948040047E0180027E00EE5F7003020074
:1000F30018757E01E4F571056DF56578727C00FD78
:10010300FB7A007978FE7F06120CEAE4F566FB7A47
:10011300007978752806FD1212DB020018E5666087
:100123000302041F7BFF7A0F79D51213657BFF7AD5
:100133000F79C412138AE57E640170047F01800283
:100143007F00E56670047E0180027E00EE5F70032F
:1001530002041F752700752800752966752A007526
:100163002B00752C71752D00752E00752F78753049
:10017300007531007532657B007A00797E1209C003
:10018300752700752800752965752A0F752BC475A9
:100193002C00752D00752E787B007A007971121072
:1001A300F5E565640370047F0180027F00E571C398
:1001B30094057480948050047E0180027E00EE5F7B
:1001C300602EE4F565F5717BFF7A10795D12136596
:1001D3007BFF7A10796E12138A7F011213D47BFF8F
:1001E3007A0F79D51213657BFF7A0F79C412138ABC
:1001F300E565640370047F0180027F00E571C394A9
:10020300057480948040047E0180027E00EE5F705E
:1002130003020139E4F521E521C3956D50497B00C3
:100223007A007967E56D75F006A4FD75280612124C
:100233008EE4F522C3E522940674809480501E74E4
:10024300782522F8E6FF74672522F8E6B5070575D9
:100253006F018005E4F56F8004052280D7E56F64A4
:10026300016004052180B0E56F60030203F7C2A1BA
:100273007FC8121321D2A17BFF7A10794C12138A03
:1002830005707F011213D47BFF7A0F79C412138A8E
:10029300E570640360030204157BFF7A1079E412AE
:1002A3001365752700752800752966752A00752B57
:1002B30000752C71752D00752E00752F7875300023
:1002C3007531007532657B007A00797E1209C0753D
:1002D3002700752800752965752A0F752BC4752CA1
:1002E30000752D00752E787B007A0079711210F558
:1002F300E565640370047F0180027F00E571C394A8
:10030300057480948050047E0180027E00EE5F605D
:100313002EE4F565F5717BFF7A10795D1213657B29
:10032300FF7A10796E12138A7F011213D47BFF7A3E
:100333000F79D51213657BFF7A0F79C412138AAF35
:10034300657E00EF640370047D0180027D00E5712A
:10035300FB7A00C394057480948040047C0180027E
:100363007C00EC5D7003020293EF64034E70047F24
:100373000180027F00C3EB9405EA6480948040040B
:100383007E0180027E00EE5F60437B007A00796726
:10039300752806E4FD12128EE4F522C3E5229406C5
:1003A30074809480501E74722522F8E6FF746725CA
:1003B30022F8E6B50705756F018005E4F56F800443
:1003C300052280D7E56F64017003020293E56F7025
:1003D3001D7BFF7A10794C12138A7F011213D47B91
:1003E300FF7A0F79C412138AE4F565020342E4F538
:1003F300700203427BFF7A0F79E612138AC2B67F3B
:10040300011213D47BFF7A0F79C412138AD2B6E494
:10041300F570E4F565F571F56F020139E566640180
:100423006003020762E566640160030207627BFF03
:100433007A1079191213657BFF7A10792A12138ABD
:10044300752700752800752966752A00752B0075B8
:100453002C71752D00752E00752F78753000753150
:10046300007532657B007A00797E1209C0E5656408
:100473000370B2F5657BFF7A1079A01213657BFFD9
:100483007A0F79C412138AE5656403700302075A6D
:10049300752700752800752966752A00752B007568
:1004A3002C71752D00752E00752F78753000753100
:1004B300007532657B007A00797E1209C0E57170A0
:1004C300047F0180027F00E565640270047E018081
:1004D300027E00EE5F6009756503756601757161E3
:1004E300752700752800752965752A0F752BC47546
:1004F3002C00752D00752E787B007A00797112100F
:10050300F5E565640370047F0180027F00E571C334
:1005130094057480948050047E0180027E00EE5F17
:10052300FFE571646160047E0180027E00EE5F601E
:100533002EE4F565F5717BFF7A10795D1213657B07
:10054300FF7A10796E12138A7F011213D47BFF7A1C
:100553001079A01213657BFF7A0F79C412138AE511
:1005630065640370047F0180027F00E571C3940515
:100573007480948040047E0180027E00EE5FFFE57C
:1005830071646160047E0180027E00EE5F7003028D
:10059300048AE4F521E521C3956D50517B007A006F
:1005A3007967E56D75F006A4FD75280612128EE4D1
:1005B300F522C3E52294067480948050267478252E
:1005C30022F8E6FF74672522F8E6B5070D756F017B
:1005D300E56D75F006A4F56E8005E4F56F800405FE
:1005E3002280CFE56F64016004052180A8E56F7068
:1005F3001F7BFF7A10794C12138A7F011213D47B6D
:10060300FF7A0F79C412138AE4F565F57102048A3F
:10061300E4F565F56F7BFF7A1079B11213657BFF03
:100623007A0F79C4020754E5656403700302048AF0
:10063300752700752800752966752A00752B0075C6
:100643002C71752D00752E00752F7875300075315E
:10065300007532657B007A00797E1209C0E57170FE
:10066300047F0180027F00E565640270047E0180DF
:10067300027E00EE5F600975650375660175716141
:10068300752700752800752965752A0F752BC475A4
:100693002C00752D00752E787B007A00797112106D
:1006A300F5E565640370047F0180027F00E571C393
:1006B30094057480948050047E0180027E00EE5F76
:1006C300FFE571646160047E0180027E00EE5F607D
:1006D3002EE4F565F5717BFF7A10795D1213657B66
:1006E300FF7A10796E12138A7F011213D47BFF7A7B
:1006F3001079B11213657BFF7A0F79C412138AE55F
:1007030065640370047F0180027F00E571C3940573
:100713007480948040047E0180027E00EE5FFFE5DA
:1007230071646160047E0180027E00EE5F700302EB
:10073300062A757E01E4F571F565F565F566FB7AC4
:10074300007978752806AD6E1212DB7BFF7A0F797C
:10075300F712138A02062AE4F565F571020428E507
:100763006664026003020018E56664026003020027
:10077300187BFF7A1079191213657BFF7A10793B86
:1007830012138A752700752800752966752A007566
:100793002B00752C71752D00752E00752F78753013
:1007A300007531007532657B007A00797E1209C0CD
:1007B300E565640370B2F5657BFF7A10798F1213D8
:1007C30065AF6D7E007B007A007923753500753641
:1007D3000A120E6A7527FF75280F7529C27B007AE6
:1007E3000079231212367F0E12133E020982E56549
:1007F300640370030209B87527007528007529661C
:10080300752A00752B00752C71752D00752E0075DA
:100813002F787530007531007532657B007A007969
:100823007E1209C0E57170047F0180027F00E565D7
:10083300640270047E0180027E00EE5F60097565CC
:100843000375660275716175270075280075296542
:10085300752A0F752BC4752C00752D00752E787BAA
:10086300007A0079711210F5E565640370047F0165
:1008730080027F00E571C394057480948050047EE8
:100883000180027E00EE5FFFE571646160047E011A
:1008930080027E00EE5F6045E4F565F5717BFF7ACB
:1008A30010795D1213657BFF7A10796E12138A7FBC
:1008B300011213D47BFF7A10798F1213657527FF0A
:1008C30075280F7529C27B007A0079231212367FAF
:1008D3000E12133E7BFF7A0F79C412138AE5656407
:1008E3000370047F0180027F00E571C39405748067
:1008F300948040047E0180027E00EE5FFFE5716418
:100903006160047E0180027E00EE5F70030207F1E6
:10091300E4F521E521C3956D50517B007A00796799
:10092300E56D75F006A4FD75280612128EE4F52216
:10093300C3E522940674809480502674782522F8A7
:10094300E6FF74672522F8E6B5070D756F01E56DBF
:1009530075F006A4F56E8005E4F56F80040522802A
:10096300CFE56F64016004052180A8E56F64017021
:100973001A7BFF7A1079C212138A7F011213D47B78
:10098300FF7A0F79C412138A0207F1E4F566F57151
:10099300056DFB7A007978E56D75F006A4FD752881
:1009A300061212DB7BFF7A1079D312138A7F0112AE
:0D09B30013D40207F1E4F565F57102076B3E
:0B1316008F807F05121321D2A77F05F6
:10132100EFD394007480948040127E70EED39400C9
:0C1331007480948040031E80F31F80E451
:01133D00228D
:1013D400AD07EDD394007480948040177C0AECD35D
:1013E40094007480948040087F641213211C80EE62
:0313F4001D80DF7A
:0113F70022D3
:0C14D000C2A7C2A6C2A5121316C2A72212
:0C14DC00C2A7C2A6D2A5121316C2A722F6
:101438007F381214D07F0C1214D07F061214D07F7C
:09144800011214D07F800214D0BF
:061365008B248A25892675
:10136B007F801214D0E4FDAB24AA25A9268D8275AB
:0E137B008300120D29FF60061214DC0D80E9BC
:011389002241
:06138A008B308A3189322C
:101390007FC01214D0E4FDAB30AA31A9328D827522
:0E13A0008300120D29FF60061214DC0D80E997
:0113AE00221C
:06133E008B308A31893278
:10134400EF2480FF1214D0E4FDAB30AA31A9328D12
:1013540082758300120D29FF60061214DC0D80E9EA
:011364002266
:0214E8002A00D8
:0609C0008B248A25892624
:1009C600E4F5337590F0AF90EF64F07003020AA976
:1009D6007F04121321AF90EF64F07003020AA97529
:1009E60090F0AF90EF2450604A24E0607B24F070D2
:1009F60003020AA624706003020AA9AB2AAA2BA93D
:100A06002C120D10C39406748094804003020AA928
:100A1600AB30AA31A9327401120DABAB2AAA2BA9AD
:100A26002C120D10AB2DAA2EA92FF58275830074FA
:100A3600078068AB2AAA2BA92C120D10C394067442
:100A4600809480505EAB30AA31A9327401120DAB8E
:100A5600AB2AAA2BA92C120D10AB2DAA2EA92FF565
:100A66008275830074048033AB2AAA2BA92C120D3D
:100A760010C39406748094805029AB30AA31A932F1
:100A86007401120DABAB2AAA2BA92C120D10AB2D9B
:100A9600AA2EA92FF5827583007401120DBD80035D
:100AA60075330175900FAF90EF640F7003020BFD65
:100AB6007F04121321AF90EF640F7003020BFD75D4
:100AC600900FAF90EF24F5605324FE7003020B7372
:100AD600147003020BA824076003020BFDE53364C0
:100AE60001700BAB30AA31A9327403020BFAAB2AA0
:100AF600AA2BA92C120D10C394067480948040036F
:100B0600020BFD120D10FFAB2DAA2EA92FF5827533
:100B16008300120D298F827583008039AB2AAA2B98
:100B2600A92C120D10C39406748094804003020B06
:100B3600FDAB30AA31A9327401120DAB6533AB2A75
:100B4600AA2BA92C7015120D10AB2DAA2EA92FF5C4
:100B560082758300E4120DBD020BFD120D10AB2D44
:100B6600AA2EA92FF58275830074018030E53364BF
:100B760001700AAB30AA31A93274028077AB2AAA77
:100B86002BA92C120D10FFC3940674809480506715
:100B9600AB2DAA2EA92F8F827583007402120D78B1
:100BA6008055AB2AAA2BA92C120D1070047F018048
:100BB600027F00E533640170047E0180027E00EF4F
:100BC6005EFFAB24AA25A926120D10640170047ECF
:100BD6000180027E00EE5F6014AB27AA28A9297463
:100BE60001120D56120D106403700C8007AB30AA6B
:100BF60031A932E4120DABAF90EF640760F9AF9004
:100C0600EF640B60F2AF90EF640D60EBAF90EF64B2
:030C16000E60E489
:010C190022B8
:1010F5008B248A258926AB27AA28A929120D1064D5
:03110500017078FE
:10110800AB24AA25A926120D10AB2CAA2DA92EF5C1
:1011180082758300120D29FF7E007B007A00792FEB
:1011280075350075360A120E6AAB24AA25A926124F
:101138000D10FFD39406748094805027EF2449FF44
:101148007B007A00792F12133E7FFA121321AB2409
:10115800AA25A926120D102449FF7BFF7A1479E8E5
:1011680012133EAB24AA25A9267401120D56AB27EB
:08117800AA28A929E4120DAB1D
:10118000AB27AA28A929120D106402701CAA2AA94B
:101190002B7BFF12138AAB24AA25A926E4120DABE0
:0A11A000AB27AA28A929120DAB22E3
:1013AF00303132333435363738394142434445468C
:1013BF004748494A4B4C4D4E4F5051525354555636
:0513CF005758595A00B7
:07146A00D2B5121471D2B4D7
:10147100E4FFEFC3940D748094805004000F80F258
:011481002248
:0D14B60012146AC2B5121471C2B40214718E
:0F149800C2B512146CD2B5121471C2B402147121
:0213F800AE073E
:1013FA00E4FDED64086016EE25E0FE92B512146C69
:0E140A00C2B4121471C2B51214710D80E5D374
:0114180022B1
:10141900E4FE7D08ED601512146AA2B5E433FFEE0F
:0E14290025E04FFEC2B41214711D80E8AF061C
:011437002292
:0F14A700C2B512146CC2B4121471D2B502147112
:0D14C30012146AC2B4121471C2B502147181
:0A145100AC051214B67FA01213F8C8
:0E145B0012146AA2B59200C2B4121471A2005B
:011469002260
:1012DB001214515002801DAF041213F812145B50FC
:1012EB0003121498E528601A120D10FF1213F8124E
:1012FB00145B5003021498740129F9E43AFA152887
:0B130B0080E21214987F0A12132122C6
:10128E001214515003121498AF041213F812145B77
:10129E0050031214981214B67FA11213F812145B95
:1012AE005003121498E52864016015121419EF12F8
:1012BE000DAB1214A7740129F9E43AFA152880E54A
:0D12CE00121419EF120DAB1214C302149884
:0A0E6A008E308F318B328A338934C9
:100E740078377C007D007BFF7A1379AF7E007F2575
:100E8400120CEAE4F55EF55FE536640A4535703127
:100E9400C3E530648094805028C3E49531FFE49521
:100EA40030F55C8F5DAB32AA33A934055FE55FAEE4
:100EB4005E7002055E14F5828E83742D120DBD8062
:100EC4000685305C85315DAC35AD36AE5CAF5D1208
:100ED4000DDF74372DF8E6FFAB32AA33A934055F72
:100EE400E55FAC5E7002055E14F5828C83EF120D33
:100EF400BDAE5CAF5DAC35AD36120DDF8E5C8F5D83
:100F0400E55D455C70C1AB32AA33A934855F828547
:100F14005E83120DBD120D10B42D08756200756349
:100F2400018005E4F562F563856260856361E55FD0
:100F340024FFFFE55E34FFFE7C007D02120E34D3F5
:100F4400E5619FEE6480F8E5606480985069AB3297
:100F5400AA33A934856182856083120D29F564E57D
:100F64005F24FFFFE55E34FFFEE5632FFFE5623E8D
:100F7400FEC3EF9561FFEE95608F82F583120D2914
:100F8400856182856083120DBDE55F24FFFFE55E08
:100F940034FFFEE5632FFFE5623EFEC3EF9561FF7C
:100FA400EE95608F82F583E564120DBD0561E56100
:0D0FB40070020560020F32AB32AA33A9347F
:010FC100220D
:030000000211AA40
:0C11AA00787FE4F6D8FD75817E0211F11B
:100C1A00E709F608DFFA8046E709F208DFFA803EBC
:100C2A0088828C83E709F0A3DFFA8032E309F608A9
:100C3A00DFFA8078E309F208DFFA807088828C8311
:100C4A00E309F0A3DFFA806489828A83E0A3F608C5
:100C5A00DFFA805889828A83E0A3F208DFFA804C9F
:100C6A0080D280FA80C680D4806980F28033801076
:100C7A0080A680EA809A80A880DA80E280CA8033DF
:100C8A0089828A83ECFAE493A3C8C582C8CCC58357
:100C9A00CCF0A3C8C582C8CCC583CCDFE9DEE78027
:100CAA000D89828A83E493A3F608DFF9ECFAA9F0A6
:100CBA00EDFB2289828A83ECFAE0A3C8C582C8CCFC
:100CCA00C583CCF0A3C8C582C8CCC583CCDFEADE15
:100CDA00E880DB89828A83E493A3F208DFF980CC77
:100CEA0088F0EF60010E4E60C388F0ED2402B40470
:100CFA000050B9F582EB2402B4040050AF23234517
:060D0A008223900C6A73C5
:100D1000BB010689828A83E0225002E722BBFE02E1
:090D2000E32289828A83E4932214
:100D2900BB010CE58229F582E5833AF583E022507F
:100D390006E92582F8E622BBFE06E92582F8E222C9
:0D0D4900E58229F582E5833AF583E49322E3
:100D5600BB010989828A83F8E028F022500327F72D
:100D660022BBFE05F8E328F3228A838982F8E493FE
:020D7600282231
:100D7800BB010FF8E58229F582E5833AF583E0287F
:100D8800F0225009C58229F8E58226F622BBFE0921
:100D9800C58229F8E22582F222F8EA2583F583E95B
:030DA8009328226B
:100DAB00BB010689828A83F0225002F722BBFE0127
:020DBB00F32221
:100DBD00F8BB010DE58229F582E5833AF583E8F06C
:100DCD00225006E92582C8F622BBFE05E92582C818
:020DDD00F22200
:100DDF00BC000BBE0029EF8DF084FFADF022E4CCF8
:100DEF00F875F008EF2FFFEE33FEEC33FCEE9DECC1
:100DFF00984005FCEE9DFE0FD5F0E9E4CEFD22ED07
:100E0F00F8F5F0EE8420D21CFEADF075F008EF2F50
:100E1F00FFED33FD4007985006D5F0F222C398FD41
:050E2F000FD5F0EA22DE
:100E3400C2D5EC30E709B2D5E4C39DFDE49CFCEED9
:100E440030E715B2D5E4C39FFFE49EFE120DDFC365
:100E5400E49DFDE49CFC8003120DDF30D507C3E460
:060E64009FFFE49EFE2248
:101236008B248A2589268B2A8A2B892CAB24052682
:10124600E526AA257002052514F9120D1070ED7415
:10125600FF2526F52674FF3525F525AB270529E557
:1012660029AA287002052814F9120D10FFAB2405CF
:1012760026E526AA257002052514F9EF120DAB7096
:08128600DAAB2AAA2BA92C22E5
:1011B600020003E493A3F8E493A34003F68001F24C
:1011C60008DFF48029E493A3F85407240CC8C3333A
:1011D600C4540F4420C8834004F456800146F6DF09
:1011E600E4800B0102040810204080901482E47E03
:1011F600019360BCA3FF543F30E509541FFEE493FE
:10120600A360010ECF54C025E060A840B8E493A3C4
:10121600FAE493A3F8E493A3C8C582C8CAC583CAEF
:10122600F0A3C8C582C8CAC583CADFE9DEE780BEA7
:011497000054
:00000001FF
