:101656003D0070617373776F72643A2020202020FA
:10166600202000436F646564204C6F636B28202F35
:10167600332920002020202020206F70656E202036
:101686002020202000526573657450617373776F54
:1016960072644F4B2000496E6974207061737377D2
:1016A6006F72642E2E2E003D3D4D6F64652053658E
:1016B6007474696E673D3D002D4368616E676520F1
:1016C60050617373776F7264002D416464204E65B8
:1016D600772055736572202020003D4368616E6750
:1016E600652053657474696E673D003D3D3E496EE5
:1016F600697420202020416C6F6E650020202049EF
:101706006E6974203D3D3E416C6F6E65002D4465EB
:101716006C6574652050617373776F7264003D4425
:10172600656C6574652053657474696E673D003D2C
:101736003D3E416C6C2020202020416C6F6E650080
:10174600202020416C6C20203D3D3E416C6F6E6533
:101756000044656C657465207375636365656465CF
:1017660064004E6F2070617373776F7264207365C7
:101776007420006572726F722C74727920616761D1
:10178600696E21005761726E3A41204C656E74682D
:10179600206F66200070617373776F7264206973BF
:1017A60020736978003D41646D696E697374726176
:1017B600746F722020003D3D4F6C6420506173733E
:1017C600776F72643D3D003D3D4E657720506173F5
:1017D60073776F72643D3D002D50617373776F723E
:1017E600642065786973747300416464696E672068
:1017F600737563636565646564003D3D3D3D5549AC
:0B180600206C6F636B65643D3D3D008E
:101C1600065C000000000000015701016800015940
:101C260000015000015A00014E00014F00015B0007
:10000300121C37E56870047F0180027F00E54F70A2
:10001300047E0180027E00EE5F60137B007A00792C
:100023005C752806E4FD121A7F75680180D5E54FDB
:1000330060030203807BFF7A167969121B62C37423
:1000430003955AFDE49400FC7F0B121BD07BFF7ACF
:10005300167958121B87E568640170047F018002DA
:100063007F00E54F70047E0180027E00EE5F700327
:1000730002038075270075280075294F752A0075BE
:100083002B00752C5B752D00752E00752F62753056
:100093000075310075324E7B007A0079681213FCCB
:1000A30075270075280075294E752A16752B587506
:1000B3002C00752D00752E627B007A00795B121976
:1000C30016E54E640370047F0180027F00E55BC385
:1000D30094057480948050047E0180027E00EE5F5C
:1000E300603DE4F54EF55B7BFF7A17798A121B625C
:1000F3007BFF7A17799B121B877F01121BAC7BFF57
:100103007A167969121B62C37403955AFDE494004D
:10011300FC7F0B121BD07BFF7A167958121B87E5E5
:100123004E640370047F0180027F00E55BC3940586
:100133007480948040047E0180027E00EE5F700331
:10014300020059E4F522E522C3955750497B007A12
:10015300007951E52275F006A4FD752806121A39B7
:10016300E4F523C3E523940674809480501E7462DF
:100173002523F8E6FF74512523F8E6B507057559DD
:10018300018005E4F5598004052380D7E55964010E
:100193006004052280B07F02121BACE559600302A4
:1001A3000340C2A17FC8121AF7D2A17BFF7A177945
:1001B30079121B87055A7F01121BACE55A64036051
:1001C3000302031DF55BF54EE55A64036003020366
:1001D300767BFF7A187900121B6275270075280059
:1001E30075294F752A00752B00752C5B752D0075CD
:1001F3002E00752F6275300075310075324E7B000D
:100203007A0079681213FC75270075280075294E4A
:10021300752A16752B58752C00752D00752E627B6B
:10022300007A00795B121916E54E640370047F01AE
:1002330080027F00E55BC394057480948050047E44
:100243000180027E00EE5F6028E4F54EF55B7BFFE4
:100253007A17798A121B627BFF7A17799B121B87A5
:100263007F01121BAC7BFF7A187900121B62020319
:1002730011E54E640370047F0180027F00E55BC3D8
:1002830094057480948040047E0180027E00EE5FBA
:1002930070030201CB7B007A007951752806E4FDD7
:1002A300121A39E4F523C3E523940674809480502D
:1002B3001E74622523F8E6FF74512523F8E6B5077B
:1002C300057559018005E4F5598004052380D7E5B8
:1002D30059701E7BFF7A177979121B877F01121BD6
:1002E300AC7BFF7A167958121B87E4F54EF55B80D9
:1002F30080E4F55AF55B7BFF7A167969121B62C3BA
:100303007403955AFDE49400FC7F0B121BD07BFF12
:100313007A167958121B870202747BFF7A16796961
:10032300121B62C37403955AFDE49400FC7F0B1205
:100333001BD07BFF7A167958121B8780367BFF7A96
:1003430016797A121B87E4F55AC2B67F01121BACE9
:100353007BFF7A167969121B62C37403955AFDE415
:100363009400FC7F0B121BD07BFF7A167958121B6B
:1003730087D2B6E4F54EF55BF559020059E54F64B3
:10038300016003020AC6E54F64016003020AC67BEB
:10039300FF7A1679AD121B627BFF7A1679BE121BA8
:1003A3008775270075280075294F752A00752B005E
:1003B300752C5B752D00752E00752F6275300075D9
:1003C300310075324E7B007A0079681213FCE54EDA
:1003D30064036003020ABCF54E754F03E54E6403E4
:1003E3007003020ABC7BFF7A1679E0121B62E54FA9
:1003F3006403700C7BFF7A1679F1121B8775500129
:10040300E54F700F7BFF7A177902121B87754F0236
:1004130075500275270075280075294F752A0075D8
:100423002B00752C5B752D00752E00752F627530B2
:100433000075310075324E7B007A0079681213FC27
:10044300E55B70047F0180027F00E54E6402700467
:100453007E0180027E00EE5F6009754E03754F01D9
:10046300755B61E550640170047F0180027F00E5E4
:100473004E640370047E0180027E00EE5FFFE55B45
:10048300646160047E0180027E00EE5F70030207F8
:100493006BE4F54E7BFF7A1779BC121B627BFF7A04
:1004A300167958121B87E54E6403700302075B75C8
:1004B300270075280075294F752A00752B00752CA8
:1004C3005B752D00752E00752F6275300075310038
:1004D30075324E7B007A0079681213FCE55B700479
:1004E3007F0180027F00E54E640270047E0180027A
:1004F3007E00EE5F6009754E03754F01755B617594
:10050300270075280075294E752A16752B58752CEA
:1005130000752D00752E627B007A00795B12191627
:10052300E54E640370047F0180027F00E55BC394A2
:10053300057480948050047E0180027E00EE5FFF8C
:10054300E55B646160047E0180027E00EE5F602EE5
:10055300E4F54EF55B7BFF7A17798A121B627BFF0A
:100563007A17799B121B877F01121BAC7BFF7A17CB
:1005730079BC121B627BFF7A167958121B87E54EF2
:10058300640370047F0180027F00E55BC3940574FC
:1005930080948040047E0180027E00EE5FFFE55B75
:1005A300646160047E0180027E00EE5F70030204DA
:1005B300A97B007A007951752806E4FD121A39E403
:1005C300F523C3E523940674809480501E7462253A
:1005D30023F8E6FF74512523F8E6B507057559019D
:1005E3008005E4F5598004052380D7E559701F7B06
:1005F300FF7A177979121B877F01121BAC7BFF7A75
:10060300167958121B87E4F54EF55B0204A9E4F54D
:100613004EF559F55B7BFF7A1779CD121B627BFF91
:100623007A167958121B87E54E640370030204A9F6
:1006330075270075280075294F752A00752B0075DD
:100643002C5B752D00752E00752F5C753000753190
:100653000075324E7B007A0079681213FCE55B70FB
:10066300047F0180027F00E54E640270047E0180F6
:10067300027E00EE5F6009754E03754F01755B6185
:1006830075270075280075294E752A16752B587520
:100693002C00752D00752E5C7B007A00795B121996
:1006A30016E54E640370047F0180027F00E55BC39F
:1006B30094057480948050047E0180027E00EE5F76
:1006C300FFE55B646160047E0180027E00EE5F6093
:1006D3002EE4F54EF55B7BFF7A17798A121B627B5A
:1006E300FF7A17799B121B877F01121BAC7BFF7A62
:1006F3001779CD121B627BFF7A167958121B87E597
:100703004E640370047F0180027F00E55BC39405A0
:100713007480948040047E0180027E00EE5FFFE5DA
:100723005B646160047E0180027E00EE5F70030201
:10073300062A755B61754E03E4F54FFB7A00795C1D
:10074300752806FD121A7F7BFF7A16798B121B8799
:100753007F01121BAC02062AE4F550F54EE55BB4AB
:100763006106754E03E4F54FE550640270047F01A2
:1007730080027F00E54E640370047E0180027E00E8
:10078300EE5FFFE55B646160047E0180027E00EE44
:100793005F70030203DFD3E55794017480948050A4
:1007A30003020AA6E4F54E7BFF7A1779BC121B629B
:1007B3007BFF7A167958121B87E54E640370030298
:1007C3000A9075270075280075294F752A00752B27
:1007D30000752C5B752D00752E00752F627530002A
:1007E30075310075324E7B007A0079681213FCE58F
:1007F3005B70047F0180027F00E54E640270047E1B
:100803000180027E00EE5F6009754E03754F01752E
:100813005B6175270075280075294E752A16752B9F
:1008230058752C00752D00752E627B007A00795B5C
:10083300121916E54E640370047F0180027F00E500
:100843005BC394057480948050047E0180027E0013
:10085300EE5FFFE55B646160047E0180027E00EE73
:100863005F602EE4F54EF55B7BFF7A17798A121BE6
:10087300627BFF7A17799B121B877F01121BAC7B6C
:10088300FF7A1779BC121B627BFF7A167958121B09
:1008930087E54E640370047F0180027F00E55BC33C
:1008A30094057480948040047E0180027E00EE5F94
:1008B300FFE55B646160047E0180027E00EE5F7091
:1008C300030207BC752201E522C3955750517B00F3
:1008D3007A007951E52275F006A4FD752806121AEF
:1008E30039E4F523C3E52394067480948050267479
:1008F300622523F8E6FF74512523F8E6B5070D7545
:100903005901E52275F006A4F5588005E4F55980F0
:1009130004052380CFE55964016004052280A8E51E
:1009230059701F7BFF7A177979121B877F01121B7E
:10093300AC7BFF7A167958121B87E4F54EF55B0200
:1009430007BCE4F54EF559F55B7BFF7A1779CD12B9
:100953001B627BFF7A167958121B87E54E6403707E
:10096300030207BC75270075280075294F752A00F7
:10097300752B00752C5B752D00752E00752F627518
:10098300300075310075324E7B007A00796812139E
:10099300FCE55B70047F0180027F00E54E6402701A
:1009A300047E0180027E00EE5F6009754E03754F81
:1009B30001755B6175270075280075294E752A1628
:1009C300752B58752C00752D00752E627B007A00EF
:1009D300795B121916E54E640370047F0180027F70
:1009E30000E55BC394057480948050047E0180020B
:1009F3007E00EE5FFFE55B646160047E0180027E42
:100A030000EE5F602EE4F54EF55B7BFF7A17798A83
:100A1300121B627BFF7A17799B121B877F01121BC4
:100A2300AC7BFF7A1779CD121B627BFF7A1679585C
:100A3300121B87E54E640370047F0180027F00E58B
:100A43005BC394057480948040047E0180027E0021
:100A5300EE5FFFE55B646160047E0180027E00EE71
:100A63005F700302095E755B61754E03E4F54FFB2E
:100A73007A007962752806AD58121A7F7BFF7A16C1
:100A8300798B121B877F01121BAC02095EE4F550C0
:100A9300F54EE55B646160030203DF754E03F54FBA
:100AA3000203DF7BFF7A177968121B877F01121B12
:100AB300ACE4F54EF54F0203DFE4F550F54EF55B7C
:100AC300020389E54F64026003020D10E54F6402DF
:100AD3006003020D107BFF7A1679AD121B627BFF58
:100AE3007A1679CF121B8775270075280075294F51
:100AF300752A00752B00752C5B752D00752E0075FE
:100B03002F6275300075310075324E7B007A0079A3
:100B1300681213FCE54E640370B2F54E7BFF7A173F
:100B230079AB121B62E557FD7C007F0E121BD07B55
:100B3300FF7A1679567F0F121B147BFF7A167958AA
:100B4300121B87E54E64037003020D0875270075B9
:100B5300280075294F752A00752B00752C5B752DA0
:100B630000752E00752F6275300075310075324E99
:100B73007B007A0079681213FCE55B70047F0180C7
:100B8300027F00E54E640270047E0180027E00EE67
:100B93005F6009754E03754F02755B6175270075BC
:100BA300280075294E752A16752B58752C00752D3E
:100BB30000752E627B007A00795B121916E54E648C
:100BC3000370047F0180027F00E55BC3940574809A
:100BD300948050047E0180027E00EE5FFFE55B643B
:100BE3006160047E0180027E00EE5F6043E4F54EA7
:100BF300F55B7BFF7A17798A121B627BFF7A177981
:100C03009B121B877F01121BAC7BFF7A1779AB12F8
:100C13001B62E557FD7C007F0E121BD07BFF7A160B
:100C230079567F0F121B147BFF7A167958121B8794
:100C3300E54E640370047F0180027F00E55BC3948B
:100C4300057480948040047E0180027E00EE5FFF85
:100C5300E55B646160047E0180027E00EE5F7003E9
:100C6300020B46E4F522E522C3955750497B007AEF
:100C7300007951E52275F006A4FD752806121A398C
:100C8300E4F523C3E523940674809480501E7462B4
:100C93002523F8E6FF74512523F8E6B507057559B2
:100CA300018005E4F5598004052380D7E5596401E3
:100CB3006004052280B0E5596401701F7BFF7A1739
:100CC30079DE121B877F01121BAC7BFF7A167958E2
:100CD300121B87E4F54EF55B020B46E4F54FF55B1B
:100CE300FB7A007962E55775F006A4FD75280612B4
:100CF3001A7F05577BFF7A1779EF121B877F011243
:100D03001BAC020B46E4F54EF55B020ACFE54F64DC
:100D1300036003020006E54F640360030200067BE1
:100D2300FF7A1679AD121B627BFF7A177913121BB8
:100D33008775270075280075294F752A00752B00C4
:100D4300752C5B752D00752E00752F62753000753F
:100D5300310075324E7B007A0079681213FCE54E40
:100D6300640370B2F54EE54E640370030210967B84
:100D7300FF7A177924121B62E54F6403700C7BFF23
:100D83007A177935121B87755001E54F700F7BFF7A
:100D93007A177946121B87754F0275500275270023
:100DA30075280075294F752A00752B00752C5B7506
:100DB3002D00752E00752F62753000753100753268
:100DC3004E7B007A0079681213FCE55B70047F01A7
:100DD30080027F00E54E640270047E0180027E0083
:100DE300EE5F6009754E03754F03755B61E55064F3
:100DF3000170047F0180027F00E54E640370047E6E
:100E03000180027E00EE5FFFE55B646160047E01AA
:100E130080027E00EE5F6038D3E5579401748094BE
:100E2300804019755701754E03E4F54F7BFF7A1720
:100E33007957121B877F01121BAC80147BFF7A1733
:100E43007968121B877F01121BACE4F54E754F03C3
:100E5300E550640270047F0180027F00E54E640365
:100E630070047E0180027E00EE5FFFE55B646160DB
:100E7300047E0180027E00EE5F7003020D69D3E5FC
:100E8300579401748094805003021080E4F54E7BE4
:100E9300FF7A1779BC121B627BFF7A167958121BF3
:100EA30087E54E64037003020D69752700752800FA
:100EB30075294F752A00752B00752C5B752D0075F0
:100EC3002E00752F6275300075310075324E7B0030
:100ED3007A0079681213FCE55B70047F0180027F5E
:100EE30000E54E640270047E0180027E00EE5F60C6
:100EF30009754E03754F01755B61752700752800F1
:100F030075294E752A16752B58752C00752D00758D
:100F13002E627B007A00795B121916E54E6403702A
:100F2300047F0180027F00E55BC394057480948095
:100F330050047E0180027E00EE5FFFE55B6461602A
:100F4300047E0180027E00EE5F602EE4F54EF55BC9
:100F53007BFF7A17798A121B627BFF7A17799B12C0
:100F63001B877F01121BAC7BFF7A1779BC121B62B4
:100F73007BFF7A167958121B87E54E640370047F52
:100F83000180027F00E55BC3940574809480400474
:100F93007E0180027E00EE5FFFE55B646160047E9C
:100FA3000180027E00EE5F7003020EA4752201E54C
:100FB30022C39557504C7B007A007951E52275F096
:100FC30006A4FD752806121A39E4F523C3E5239414
:100FD3000674809480502174622523F8E6FF7451CF
:100FE3002523F8E6B507087559018522588005E4DD
:100FF300F5598004052380D4E55964016004052272
:1010030080ADE559701F7BFF7A177979121B877FB3
:1010130001121BAC7BFF7A167958121B87E4F54E3D
:10102300F55B020EA4855822E522C395575035E59A
:101033005714FFE522C39F50277B007A007951E5BF
:10104300220475F006A4FD752806121A397B007A6E
:10105300007951E52275F006A4FD752806121A7F62
:10106300052280C41557754E03E4F54F7BFF7A17AD
:101073007957121B877F01121BAC020EA47BFF7AE8
:10108300177968121B877F01121BACE4F54EF54FED
:0D109300020D69E4F550F54EF55B020D19F4
:031CAC00256400AC
:0B1AEC008F807F05121AF7D2A77F053C
:101AF700EFD394007480948040127E70EED39400EC
:0C1B07007480948040031E80F31F80E473
:011B130022AF
:101BAC00AD07EDD394007480948040177C0AECD37D
:101BBC0094007480948040087F64121AF71C80EEA5
:031BCC001D80DF9A
:011BCF0022F3
:0C1C9400C2A7C2A6C2A5121AECC2A72269
:0C1CA000C2A7C2A6D2A5121AECC2A7224D
:101C37007F38121C947F0C121C947F06121C947F11
:091C470001121C947F80021C9420
:061B62008B248A25892670
:101B68007F80121C94E4FDAB24AA25A9268D8275DA
:0E1B7800830012182AFF6006121CA00D80E9DF
:011B8600223C
:061B87008B2F8A3089312A
:101B8D007FC0121C94E4FDAB2FAA30A9318D827554
:0E1B9D00830012182AFF6006121CA00D80E9BA
:011BAB002217
:061B14008B3A8A3B893C7C
:101B1A00EF2480FF121C94E4FDAB3AAA3BA93C8D4A
:101B2A008275830012182AFF6006121CA00D80E934
:011B3A002288
:021BD0008F2F55
:101BD200753DFF753E1C753FAC8C408D417B007A94
:101BE2000079301210FC7B007A007930AF2F021B93
:011BF20014DE
:021CAF002A0009
:0613FC008B248A258926DE
:10140200E4F5337590F0AF90EF64F070030214E5E9
:101412007F03121AF7AF90EF64F070030214E575C0
:1014220090F0AF90EF2450604A24E0607B24F0708B
:10143200030214E2247060030214E5AB2AAA2BA96A
:101442002C121811C394067480948040030214E590
:10145200AB30AA31A93274011218ACAB2AAA2BA95B
:101462002C121811AB2DAA2EA92FF58275830074A8
:10147200078068AB2AAA2BA92C121811C3940674F0
:10148200809480505EAB30AA31A93274011218AC3C
:10149200AB2AAA2BA92C121811AB2DAA2EA92FF513
:1014A2008275830074048033AB2AAA2BA92C1218EC
:1014B20011C39406748094805029AB30AA31A932AA
:1014C20074011218ACAB2AAA2BA92C121811AB2D3D
:1014D200AA2EA92FF58275830074011218BE80030B
:1014E20075330175900FAF90EF640F7003021639D8
:1014F2007F03121AF7AF90EF640F7003021639756B
:10150200900FAF90EF24F5605324FE70030215AFE5
:101512001470030215E424076003021639E53364EC
:1015220001700BAB30AA31A9327403021636AB2A12
:10153200AA2BA92C121811C394067480948040031C
:10154200021639121811FFAB2DAA2EA92FF582759A
:10155200830012182A8F827583008039AB2AAA2B46
:10156200A92C121811C394067480948040030216A9
:1015720039AB30AA31A93274011218AC6533AB2AE7
:10158200AA2BA92C7015121811AB2DAA2EA92FF572
:1015920082758300E41218BE021639121811AB2D9F
:1015A200AA2EA92FF58275830074018030E5336479
:1015B20001700AAB30AA31A93274028077AB2AAA31
:1015C2002BA92C121811FFC39406748094805067C3
:1015D200AB2DAA2EA92F8F8275830074021218795F
:1015E2008055AB2AAA2BA92C12181170047F0180F6
:1015F200027F00E533640170047E0180027E00EF09
:101602005EFFAB24AA25A926121811640170047E7C
:101612000180027E00EE5F6014AB27AA28A929741C
:10162200011218571218116404700C8007AB30AA0B
:1016320031A932E41218ACAF90EF640760F9AF90B1
:10164200EF640B60F2AF90EF640D60EBAF90EF646C
:031652000E60E443
:011655002272
:101916008B248A258926AB27AA28A929121811649F
:1019260001705AAB24AA25A926121811FED39406D3
:10193600748094805032EE2449FFAB2CAA2DA92E38
:101946008E8275830012182AFD7C00121BD07FFA46
:10195600121AF7AB24AA25A9261218112449FF7BCF
:10196600FF7A1C79AF121B14AB24AA25A926740191
:10197600121857AB27AA28A929E41218ACAB27AA34
:1019860028A9291218116402701CAA2AA92B7BFF08
:10199600121B87AB24AA25A926E41218ACAB27AAEA
:0719A60028A9291218AC2248
:0F1C6700D2B5D2B400000000C2B50000000022C8
:0F1C7600C2B5D2B400000000D2B50000000022B9
:081C5000121C677FA0121BF3B8
:0F1C5800C2B500000000D2B400000000C2B422E8
:0F1C8500D2B500000000D2B400000000C2B422AB
:101BF3007E08AD07C2B400000000ED54806480701D
:101C030004D2B58002C2B5D2B4EF25E0FDFFDEE217
:021C1300C2B459
:011C150022AC
:101AC200E4FFFE7D08D2B5C2B400000000D2B4002B
:101AD20000000030B50543070180035307FEED14F3
:091AE2006005EF25E0FEFFDDDEEA
:011AEB0022D8
:021A7F008D27B1
:101A81008B2A8A2B892CE4F529E529C39528503026
:101A9100121C50E5272529FF121BF3121C58AB2AF3
:101AA100AA2BA92C85298275830012182AFF121BE3
:101AB100F3121C58121C767F14121AF7052980C9DB
:011AC1002202
:021A39008D27F7
:101A3B008B298A2A892BE4FCECC395285035121C80
:101A4B0050E5272CFF121BF3121C58121C677FA1A9
:101A5B00121BF3121C58121AC2AB29AA2AA92B8CDF
:101A6B0082758300EF1218BEC2B4121C85121C764D
:031A7B000C80C517
:011A7E002245
:030000000219AD35
:0C19AD00787FE4F6D8FD7581680219F41B
:10181100BB010689828A83E0225002E722BBFE02D5
:09182100E32289828A83E4932208
:10182A00BB010CE58229F582E5833AF583E0225073
:10183A0006E92582F8E622BBFE06E92582F8E222BD
:0D184A00E58229F582E5833AF583E49322D7
:10185700BB010989828A83F8E028F022500327F721
:1018670022BBFE05F8E328F3228A838982F8E493F2
:02187700282225
:10187900BB010FF8E58229F582E5833AF583E02873
:10188900F0225009C58229F8E58226F622BBFE0915
:10189900C58229F8E22582F222F8EA2583F583E94F
:0318A9009328225F
:1018AC00BB010689828A83F0225002F722BBFE011B
:0218BC00F32215
:1018BE00F8BB010DE58229F582E5833AF583E8F060
:1018CE00225006E92582C8F622BBFE05E92582C80C
:0218DE00F222F4
:1010A000E549243DF8E6054922783A300702783DC3
:1010B000E475F0011218E00218112000EB7F2ED227
:1010C000008018EF540F2490D43440D4FF30040B28
:1010D000EF24BFB41A0050032461FFE54A600215F3
:1010E0004A054DE54D7002054C30070D783AE47520
:1010F000F0011218E0EF0218AC021B3B7403D20798
:101100008003E4C207F5498B3A8A3B893CE4F54AFF
:10111000F54CF54DE54A60077F201210DB80F57530
:101120004BFFC201C200C202C203C205C206C2080E
:101130001210A9FF700D3007057F001210ECAF4DA3
:10114000AE4C22B4255FC2D5C2041210A9FF24D030
:10115000B40A00501A75F00A784A30D50508B6FF6F
:101160000106C6A426F620D5047002D20380D92435
:10117000CFB41A00EF5004C2E5D2040212ECD2013F
:1011800080C6D20080C0D20280BCD2D580BAD2053F
:1011900080B47F201210DB2002077401B54A0040A2
:1011A000F11210A0FF1210DB021114D208D2068037
:1011B000951210A0FB1210A0FA1210A0F94A4B7061
:1011C0000679BD7A137BFF20022EE54A602A7E0055
:1011D0008E8275830012182A60060EEE654B70F041
:1011E000C2D5EBC0E0EAC0E0E9C0E0EE121333D0B4
:1011F000E0F9D0E0FAD0E0FB121811FF60AAEBC0D2
:10120000E0EAC0E0E9C0E01210DBD0E02401F9D050
:10121000E03400FAD0E0FBE54B0460DCD54BD9802C
:10122000877BFF7A13792FD202809C791080027914
:1012300008C206C2088008D2D5790A8004790AC299
:10124000D5E54B047002F54BE4FAFDFEFF1210A049
:10125000FC7B082001131210A0FD7B1030000A1245
:1012600010A0FE1210A0FF7B20EC3382D592D55047
:1012700013C3E43000069FFFE49EFEE42001039DBB
:10128000FDE49CFCE4CBF8C201EC700CCFCECDCCDD
:10129000E824F8F870F38017C3EF33FFEE33FEED68
:1012A00033FDEC33FCEB33FB994002FB0FD8E9EB49
:1012B000300105F8D0E0C448B201C0E00AEC4D4E60
:1012C0004F78207B0070C2EAB54B0040BCC0E012F2
:1012D0001335D0F0D0E0200104C4C0E0C4B201C096
:1012E000F01210C4D0F0D5F0EB0211141218F01166
:1012F000B153122B5811824C117E42122F4F1237CC
:0F13000044123749119743123D551221461221CD
:10130F004512214713DD5011862D118A2E11AD2B59
:10131F00118E2311AB2013C62A114648000011A5C8
:10132F003F3F3F00790AA2D5200314300509B910B9
:10133F00020404B9080104A2D520060250010420BA
:10134F0002689202B54A005034C0E07F2030031982
:10135F007F30A20272067205500F12138CC202C2A6
:10136F0006C205C2087F30800F300503E9C0E012C6
:10137F0010DB300503D0E0F9D0E0B54ACC300517CB
:10138F007F30B9100C1210DB7F583004077F788044
:10139F0003B908031210DB3002057F2D0210DB7F2B
:1013AF00202008F87F2B2006F322920280CF286E90
:1013BF00756C6C2900D2011210A03001F8C20178AF
:1013CF004A30D50108F60211462D504349581210E4
:1013DF00A02403B405004001E49013D8931210CC5D
:0D13EF00743A1210CCD203754A0402122B7E
:1019B900020003E493A3F8E493A34003F68001F241
:1019C90008DFF48029E493A3F85407240CC8C3332F
:1019D900C4540F4420C8834004F456800146F6DFFE
:1019E900E4800B0102040810204080901C16E47E5C
:1019F900019360BCA3FF543F30E509541FFEE493F3
:101A0900A360010ECF54C025E060A840B8E493A3B9
:101A1900FAE493A3F8E493A3C8C582C8CAC583CAE4
:101A2900F0A3C8C582C8CAC583CADFE9DEE780BE9C
:011C360000AD
:1018E000FAE6FB0808E6F925F0F618E6CA3AF62209
:1018F000D083D082F8E4937012740193700DA3A387
:1019000093F8740193F5828883E47374029368609A
:06191000EFA3A3A380DF9A
:101B3B00EFB40A07740D121B46740A309811A8995A
:101B4B00B8130CC2983098FDA899C298B811F6300A
:071B5B0099FDC299F59922E2
:00000001FF
