:101171003D0070617373776F72643A2020202020E4
:101181002020003D3D3D436F646564204C6F636BDF
:101191003D3D3D002020202020206F70656E2020E5
:1011A1002020202000526573657450617373776F3E
:1011B10072644F4B2000496E6974207061737377BC
:1011C1006F72642E2E2E003D3D4D6F646520536578
:1011D1007474696E673D3D002D4368616E676520DB
:1011E10050617373776F7264002D416464204E65A2
:1011F100772055736572202020006572726F722C02
:1012010074727920616761696E21005761726E3A6B
:1012110041204C656E7468206F66200070617373A5
:10122100776F72642069732073697800696E7075D5
:101231007420616761696E2020202020003D416497
:101241006D696E6973747261746F722020003D3D27
:101251004F6C642050617373776F72643D3D003D44
:101261003D4E65772050617373776F72643D3D0029
:101271002D50617373776F7264206578697374732D
:1012810000416464696E67207375636365656465B5
:1012910064003D3D3D3D5549206C6F636B65643D88
:0312A1003D3D00D0
:1015D400015600016700015800015900014E000145
:0515E4004F00015A0058
:100003001215A47BFF7A1179B71214F07BFF7A11D2
:100013007973121515E56770047F0180027F00E58F
:100023004F70047E0180027E00EE5F7003020120A8
:1000330075270075280075294F752A00752B0075E3
:100043002C5A752D00752E00752F61753000753192
:100053000075324E7B007A007967120D1C752700FC
:1000630075280075294E752A11752B73752C00752B
:100073002D00752E617B007A00795A1212A4E54E89
:10008300640370047F0180027F00E55AC394057402
:1000930080948050047E0180027E00EE5F602EE437
:1000A300F54EF55A7BFF7A12790C1214F07BFF7A26
:1000B30012791D1215157F0112153A7BFF7A1179FA
:1000C300B71214F07BFF7A117973121515E54E649C
:1000D3000370047F0180027F00E55AC39405748096
:1000E300948040047E0180027E00EE5F7003020074
:1000F30018756701E4F55A0556F54E785B7C00FDEB
:10010300FB7A007961FE7F06121046E4F54FFB7A15
:10011300007961752806FD12140D020018E54F6081
:100123000302041E7BFF7A1179841214F07BFF7A99
:10013300117973121515E567640170047F0180025C
:100143007F00E54F70047E0180027E00EE5F700346
:1001530002041E75270075280075294F752A00753E
:100163002B00752C5A752D00752E00752F61753077
:100173000075310075324E7B007A007967120D1CD1
:1001830075270075280075294E752A11752B73750F
:100193002C00752D00752E617B007A00795A12129E
:1001A300A4E54E640370047F0180027F00E55AC317
:1001B30094057480948050047E0180027E00EE5F7B
:1001C300602EE4F54EF55A7BFF7A12790C1214F087
:1001D3007BFF7A12791D1215157F0112153A7BFFE9
:1001E3007A1179841214F07BFF7A11797312151541
:1001F300E54E640370047F0180027F00E55AC394D7
:10020300057480948040047E0180027E00EE5F705E
:1002130003020139E4F522E522C3955650567B00CB
:100223007A007950E52275F006A4FD7528061213AD
:10023300C7E4F523C3E523940674809480502B749C
:10024300612523F8E6FF74502523F8E6FEB507057C
:100253007558018005E4F5588010E5232449FFEE25
:10026300FD7C0012155E052380CAE5586401600415
:10027300052280A37F0212153AE55860030203F6B4
:10028300C2A17FC8121485D2A17BFF7A1179FB1218
:10029300151505597F0112153A7BFF7A11797312EF
:1002A3001515E55964037004F55AF54EE5596403D1
:1002B30060030204147BFF7A1279931214F07527FA
:1002C3000075280075294F752A00752B00752C5A67
:1002D300752D00752E00752F617530007531007511
:1002E300324E7B007A007967120D1C752700752842
:1002F3000075294E752A11752B73752C00752D0009
:10030300752E617B007A00795A1212A4E54E6403BC
:1003130070047F0180027F00E55AC39405748094C2
:100323008050047E0180027E00EE5F601FE4F54E84
:10033300F55A7BFF7A12790C1214F07BFF7A12794B
:100343001D1215157F0112153A0203E1E54E6403F0
:1003530070047F0180027F00E55AC3940574809482
:100363008040047E0180027E00EE5F70030202AFD4
:100373007B007A007950752806E4FD1213C7E4F573
:1003830023C3E523940674809480502A745B252349
:10039300F8E6FE74502523F8E6B506057558018086
:1003A30005E4F5588010E5232449FFEEFD7C001297
:1003B300155E052380CBE558701F7BFF7A1179FB0F
:1003C3001215157F0112153A7BFF7A1179731215F5
:1003D30015E4F54EF55A02034FE4F559F55A7BFF40
:1003E3007A1179841214F07BFF7A1179731215153F
:1003F30002034F7BFF7A117995121515C2B67F015F
:1004030012153A7BFF7A117973121515D2B6E4F5FA
:1004130059E4F54EF55AF558020139E54F64016088
:1004230003020776E54F640160030207767BFF7AD8
:100433001179C81214F07BFF7A1179D91215157549
:10044300270075280075294F752A00752B00752C18
:100453005A752D00752E00752F61753000753100AA
:1004630075324E7B007A007967120D1CE54E6403EA
:1004730070B2F54E7BFF7A12794F1214F07BFF7A3C
:10048300117973121515E54E6403700302076E7537
:10049300270075280075294F752A00752B00752CC8
:1004A3005A752D00752E00752F617530007531005A
:1004B30075324E7B007A007967120D1CE55A700481
:1004C3007F0180027F00E54E640270047E0180029A
:1004D3007E00EE5F6009754E03754F01755A6175B5
:1004E300270075280075294E752A11752B73752CF5
:1004F30000752D00752E617B007A00795A1212A4C3
:10050300E54E640370047F0180027F00E55AC394C3
:10051300057480948050047E0180027E00EE5FFFAC
:10052300E55A646160047E0180027E00EE5F602E06
:10053300E4F54EF55A7BFF7A12790C1214F07BFF27
:100543007A12791D1215157F0112153A7BFF7A1263
:10055300794F1214F07BFF7A117973121515E54E5A
:10056300640370047F0180027F00E55AC39405741D
:1005730080948040047E0180027E00EE5FFFE55A96
:10058300646160047E0180027E00EE5F70030204FA
:1005930089E4F522E522C39556505E7B007A007903
:1005A30050E52275F006A4FD7528061213C7E4F57D
:1005B30023C3E52394067480948050337461252308
:1005C300F8E6FF74502523F8E6FEB5070D755801CC
:1005D300E52275F006A4F5578005E4F5588010E58B
:1005E300232449FFEEFD7C0012155E052380C2E53E
:1005F30058640160040522809BE558701F7BFF7AD5
:100603001179FB1215157F0112153A7BFF7A1179C7
:1006130073121515E4F54EF55A020489E4F54EF507
:1006230058F55A7BFF7A1279601214F07BFF7A1126
:100633007973121515E54E64037003020489752757
:100643000075280075294F752A00752B00752C5AE3
:10065300752D00752E00752F61753000753100758D
:10066300324E7B007A007967120D1CE55A70047FC5
:100673000180027F00E54E640270047E0180027EE9
:1006830000EE5F6009754E03754F01755A6175275A
:100693000075280075294E752A11752B73752C006A
:1006A300752D00752E617B007A00795A1212A4E52C
:1006B3004E640370047F0180027F00E55AC39405F2
:1006C3007480948050047E0180027E00EE5FFFE51B
:1006D3005A646160047E0180027E00EE5F602EE456
:1006E300F54EF55A7BFF7A12790C1214F07BFF7AE0
:1006F30012791D1215157F0112153A7BFF7A1279B3
:10070300601214F07BFF7A117973121515E54E64AC
:100713000370047F0180027F00E55AC3940574804F
:10072300948040047E0180027E00EE5FFFE55A6400
:100733006160047E0180027E00EE5F700302063872
:10074300756701E4F55AF54E754E03F54FFB7A00D4
:100753007961752806AD5712140D7BFF7A1179A6BE
:100763001215157F0112153A020638E4F54EF55AB3
:10077300020427E54F64026003020018E54F640298
:1007830060030200187BFF7A1179C81214F07BFF13
:100793007A1179EA12151575270075280075294F06
:1007A300752A00752B00752C5A752D00752E007552
:1007B3002F6175300075310075324E7B007A0079F8
:1007C30067120D1CE54E640370B2F54E7BFF7A127F
:1007D300793E1214F0E556FD7C007F0E12155E7B08
:1007E300FF7A1179717F0F1214A27BFF7A1179734B
:1007F300121515E54E640370030209B875270075D9
:10080300280075294F752A00752B00752C5A752DF4
:1008130000752E00752F6175300075310075324EED
:100823007B007A007967120D1CE55A70047F018002
:10083300027F00E54E640270047E0180027E00EEBA
:100843005F6009754E03754F02755A617527007510
:10085300280075294E752A11752B73752C00752D7B
:1008630000752E617B007A00795A1212A4E54E645A
:100873000370047F0180027F00E55AC394057480EE
:10088300948050047E0180027E00EE5FFFE55A648F
:100893006160047E0180027E00EE5F6043E4F54EFA
:1008A300F55A7BFF7A12790C1214F07BFF7A1279D6
:1008B3001D1215157F0112153A7BFF7A12793E122C
:1008C30014F0E556FD7C007F0E12155E7BFF7A1156
:1008D30079717F0F1214A27BFF7A117973121515A8
:1008E300E54E640370047F0180027F00E55AC394E0
:1008F300057480948040047E0180027E00EE5FFFD9
:10090300E55A646160047E0180027E00EE5F70033D
:100913000207F6E4F522E522C3955650497B007A97
:10092300007950E52275F006A4FD7528061213C759
:10093300E4F523C3E523940674809480501E746108
:100943002523F8E6FF74502523F8E6B50705755807
:10095300018005E4F5588004052380D7E558640138
:100963006004052280B0E5586401701F7BFF7A1292
:1009730079711215157F0112153A7BFF7A1179737C
:10098300121515E4F54EF55A0207F6E4F54FF55A3C
:10099300FB7A007961E55675F006A4FD7528061209
:1009A300140D05567BFF7A1279821215157F0112F9
:0D09B300153A0207F6E4F54EF55A02077FEB
:03162F002564002F
:0B147A008F807F05121485D2A77F052C
:10148500EFD394007480948040127E70EED3940064
:0C1495007480948040031E80F31F80E4EC
:0114A1002228
:10153A00AD07EDD394007480948040177C0AECD3F5
:10154A0094007480948040087F641214851C80EE95
:03155A001D80DF12
:01155D00226B
:0C161700C2A7C2A6C2A512147AC2A72264
:0C162300C2A7C2A6D2A512147AC2A72248
:1015A4007F381216177F0C1216177F061216177F34
:0915B400011216177F80021617C0
:0614F0008B248A258926E9
:1014F6007F80121617E4FDAB24AA25A9268D8275D6
:0E1506008300121085FF60061216230D80E987
:0115140022B4
:061515008B2F8A308931A2
:10151B007FC0121617E4FDAB2FAA30A9318D82754F
:0E152B008300121085FF60061216230D80E962
:01153900228F
:0614A2008B3A8A3B893CF5
:1014A800EF2480FF121617E4FDAB3AAA3BA93C8D46
:1014B80082758300121085FF60061216230D80E9DD
:0114C8002201
:02155E008F2FCD
:10156000753DFF753E16753F2F8C408D417B007A8F
:10157000007930120A1C7B007A007930AF2F0214F8
:01158000A2C8
:021632002A008C
:060D1C008B248A258926C4
:100D2200E4F5337590F0AF90EF64F07003020E05B6
:100D32007F03121485AF90EF64F07003020E057505
:100D420090F0AF90EF2450604A24E0607B24F07072
:100D520003020E0224706003020E05AB2AAA2BA91D
:100D62002C12106CC39406748094804003020E050A
:100D7200AB30AA31A9327401121107AB2AAA2BA9EE
:100D82002C12106CAB2DAA2EA92FF582758300743C
:100D9200078068AB2AAA2BA92C12106CC394067484
:100DA200809480505EAB30AA31A9327401121107CF
:100DB200AB2AAA2BA92C12106CAB2DAA2EA92FF5A7
:100DC2008275830074048033AB2AAA2BA92C1210DB
:100DD2006CC39406748094805029AB30AA31A93236
:100DE2007401121107AB2AAA2BA92C12106CAB2D7D
:100DF200AA2EA92FF582758300740112111980039E
:100E020075330175900FAF90EF640F7003020F59A5
:100E12007F03121485AF90EF640F7003020F5975B0
:100E2200900FAF90EF24F5605324FE7003020ECFB3
:100E3200147003020F0424076003020F59E53364A0
:100E420001700BAB30AA31A9327403020F56AB2AE0
:100E5200AA2BA92C12106CC39406748094804003B0
:100E6200020F5912106CFFAB2DAA2EA92FF5827515
:100E720083001210858F827583008039AB2AAA2BDA
:100E8200A92C12106CC39406748094804003020F44
:100E920059AB30AA31A93274011211076533AB2A5A
:100EA200AA2BA92C701512106CAB2DAA2EA92FF506
:100EB20082758300E4121119020F5912106CAB2DC6
:100EC200AA2EA92FF58275830074018030E5336460
:100ED20001700AAB30AA31A93274028077AB2AAA18
:100EE2002BA92C12106CFFC3940674809480506757
:100EF200AB2DAA2EA92F8F8275830074021210D4F3
:100F02008055AB2AAA2BA92C12106C70047F018089
:100F1200027F00E533640170047E0180027E00EFEF
:100F22005EFFAB24AA25A92612106C640170047E10
:100F32000180027E00EE5F6014AB27AA28A9297403
:100F4200011210B212106C6403700C8007AB30AA4D
:100F520031A932E4121107AF90EF640760F9AF9044
:100F6200EF640B60F2AF90EF640D60EBAF90EF6453
:030F72000E60E42A
:010F75002259
:1012A4008B248A258926AB27AA28A92912106C64C5
:1012B40001705AAB24AA25A92612106CFED39406F9
:1012C400748094805032EE2449FFAB2CAA2DA92EB1
:1012D4008E82758300121085FD7C0012155E7FFAE4
:1012E400121485AB24AA25A92612106C2449FF7B6D
:1012F400FF7A1679321214A2AB24AA25A926740106
:101304001210B2AB27AA28A929E4121107AB27AA05
:1013140028A92912106C6402701CAA2AA92B7BFF2D
:10132400121515AB24AA25A926E4121107AB27AA86
:0713340028A929121107226C
:0F15EA00D2B5D2B400000000C2B500000000224C
:0F15F900C2B5D2B400000000D2B500000000223D
:0815BD001215EA7FA01215814E
:0F15C500C2B500000000D2B400000000C2B42282
:0F160800D2B500000000D2B400000000C2B4222E
:101581007E08AD07C2B400000000ED548064807095
:1015910004D2B58002C2B5D2B4EF25E0FDFFDEE290
:0215A100C2B4D2
:0115A3002225
:10145000E4FFFE7D08D2B5C2B400000000D2B400A3
:1014600000000030B50543070180035307FEED146B
:091470006005EF25E0FEFFDDDE62
:011479002250
:02140D008D2729
:10140F008B2A8A2B892CE4F529E529C3952850309E
:10141F001215BDE5272529FF1215811215C5AB2A17
:10142F00AA2BA92C852982758300121085FF12150E
:10143F00811215C51215F97F14121485052980C95B
:01144F00227A
:0213C7008D2770
:1013C9008B298A2A892BE4FCECC395285035121500
:1013D900BDE5272CFF1215811215C51215EA7FA14B
:1013E9001215811215C5121450AB29AA2AA92B8CE2
:1013F90082758300EF121119C2B41216081215F979
:031409000C80C58F
:01140C0022BD
:0300000002133BAD
:0C133B00787FE4F6D8FD7581670213820C
:100F7600E709F608DFFA8046E709F208DFFA803E5D
:100F860088828C83E709F0A3DFFA8032E309F6084A
:100F9600DFFA8078E309F208DFFA807088828C83B2
:100FA600E309F0A3DFFA806489828A83E0A3F60866
:100FB600DFFA805889828A83E0A3F208DFFA804C40
:100FC60080D280FA80C680D4806980F28033801017
:100FD60080A680EA809A80A880DA80E280CA803380
:100FE60089828A83ECFAE493A3C8C582C8CCC583F8
:100FF600CCF0A3C8C582C8CCC583CCDFE9DEE780C8
:101006000D89828A83E493A3F608DFF9ECFAA9F046
:10101600EDFB2289828A83ECFAE0A3C8C582C8CC9C
:10102600C583CCF0A3C8C582C8CCC583CCDFEADEB5
:10103600E880DB89828A83E493A3F208DFF980CC17
:1010460088F0EF60010E4E60C388F0ED2402B40410
:101056000050B9F582EB2402B4040050AF232345B7
:061066008223900FC67307
:10106C00BB010689828A83E0225002E722BBFE0282
:09107C00E32289828A83E49322B5
:10108500BB010CE58229F582E5833AF583E0225020
:1010950006E92582F8E622BBFE06E92582F8E2226A
:0D10A500E58229F582E5833AF583E4932284
:1010B200BB010989828A83F8E028F022500327F7CE
:1010C20022BBFE05F8E328F3228A838982F8E4939F
:0210D2002822D2
:1010D400BB010FF8E58229F582E5833AF583E02820
:1010E400F0225009C58229F8E58226F622BBFE09C2
:1010F400C58229F8E22582F222F8EA2583F583E9FC
:031104009328220B
:10110700BB010689828A83F0225002F722BBFE01C7
:02111700F322C1
:10111900F8BB010DE58229F582E5833AF583E8F00C
:10112900225006E92582C8F622BBFE05E92582C8B8
:02113900F222A0
:1009C000E549243DF8E6054922783A300702783DAA
:1009D000E475F00112113B02106C2000EB7F2ED267
:1009E000008018EF540F2490D43440D4FF30040B0F
:1009F000EF24BFB41A0050032461FFE54A600215DA
:100A00004A054DE54D7002054C30070D783AE47506
:100A1000F00112113BEF0211070214C97403D2074F
:100A20008003E4C207F5498B3A8A3B893CE4F54AE6
:100A3000F54CF54DE54A60077F201209FB80F575FE
:100A40004BFFC201C200C202C203C205C206C208F5
:100A50001209C9FF700D3007057F00120A0CAF4D57
:100A6000AE4C22B4255FC2D5C2041209C9FF24D0FE
:100A7000B40A00501A75F00A784A30D50508B6FF56
:100A80000106C6A426F620D5047002D20380D9241C
:100A9000CFB41A00EF5004C2E5D204020C0CD2010C
:100AA00080C6D20080C0D20280BCD2D580BAD20526
:100AB00080B47F201209FB2002077401B54A004070
:100AC000F11209C0FF1209FB020A34D208D20680D3
:100AD000951209C0FB1209C0FA1209C0F94A4B70FD
:100AE0000679DD7A0C7BFF20022EE54A602A7E0023
:100AF0008E8275830012108560060EEE654B70F0D5
:100B0000C2D5EBC0E0EAC0E0E9C0E0EE120C53D081
:100B1000E0F9D0E0FAD0E0FB12106CFF60AAEBC065
:100B2000E0EAC0E0E9C0E01209FBD0E02401F9D01E
:100B3000E03400FAD0E0FBE54B0460DCD54BD98013
:100B4000877BFF7A0C794FD202809C7910800279E2
:100B500008C206C2088008D2D5790A8004790AC280
:100B6000D5E54B047002F54BE4FAFDFEFF1209C017
:100B7000FC7B082001131209C0FD7B1030000A1213
:100B800009C0FE1209C0FF7B20EC3382D592D550FC
:100B900013C3E43000069FFFE49EFEE42001039DA2
:100BA000FDE49CFCE4CBF8C201EC700CCFCECDCCC4
:100BB000E824F8F870F38017C3EF33FFEE33FEED4F
:100BC00033FDEC33FCEB33FB994002FB0FD8E9EB30
:100BD000300105F8D0E0C448B201C0E00AEC4D4E47
:100BE0004F78207B0070C2EAB54B0040BCC0E012D9
:100BF0000C55D0F0D0E0200104C4C0E0C4B201C064
:100C0000F01209E4D0F0D5F0EB020A3412114B0ACD
:100C1000D1530B4B580AA24C0A9E420B4F4F0B5715
:0F0C2000440B57490AB7430B5D550B41460B4137
:100C2F00450B41470CFD500AA62D0AAA2E0ACD2BC3
:100C3F000AAE230ACB200CE62A0A664800000AC532
:100C4F003F3F3F00790AA2D5200314300509B910A0
:100C5F00020404B9080104A2D520060250010420A1
:100C6F0002689202B54A005034C0E07F2030031969
:100C7F007F30A20272067205500F120CACC202C274
:100C8F0006C205C2087F30800F300503E9C0E012AD
:100C9F0009FB300503D0E0F9D0E0B54ACC30051799
:100CAF007F30B9100C1209FB7F583004077F788012
:100CBF0003B908031209FB3002057F2D0209FB7FE0
:100CCF00202008F87F2B2006F322920280CF286E77
:100CDF00756C6C2900D2011209C03001F8C201787D
:100CEF004A30D50108F6020A662D504349581209B9
:100CFF00C02403B405004001E4900CF8931209ECF2
:0D0D0F00743A1209ECD203754A04020B4B32
:10134700020003E493A3F8E493A34003F68001F2B9
:1013570008DFF48029E493A3F85407240CC8C333A7
:10136700C4540F4420C8834004F456800146F6DF76
:10137700E4800B01020408102040809015D4E47E1D
:10138700019360BCA3FF543F30E509541FFEE4936B
:10139700A360010ECF54C025E060A840B8E493A332
:1013A700FAE493A3F8E493A3C8C582C8CAC583CA5D
:1013B700F0A3C8C582C8CAC583CADFE9DEE780BE15
:0115E9000001
:10113B00FAE6FB0808E6F925F0F618E6CA3AF622B5
:10114B00D083D082F8E4937012740193700DA3A333
:10115B0093F8740193F5828883E473740293686047
:06116B00EFA3A3A380DF47
:1014C900EFB40A07740D1214D4740A309811A8994C
:1014D900B8130CC2983098FDA899C298B811F63083
:0714E90099FDC299F599225B
:00000001FF
