:10116B0070617373776F72643A20202020202020E7
:10117B00003D3D3D436F646564204C6F636B3D3DAB
:10118B003D002020202020206F70656E2020202025
:10119B00202000526573657450617373776F7264AE
:1011AB004F4B2000496E69742070617373776F72B7
:1011BB00642E2E2E003D3D4D6F6465205365747477
:1011CB00696E673D3D002D4368616E676520506118
:1011DB007373776F7264002D416464204E657720C2
:1011EB0055736572202020006572726F722C7472B9
:1011FB007920616761696E21005761726E3A4120F7
:10120B004C656E7468206F66200070617373776F26
:10121B0072642069732073697800696E707574202D
:10122B00616761696E2020202020003D41646D695B
:10123B006E6973747261746F722020003D3D4F6C48
:10124B00642050617373776F72643D3D003D3D4E7A
:10125B0065772050617373776F72643D3D002D503D
:10126B00617373776F72642065786973747300416F
:10127B006464696E67207375636365656465640098
:10128B003D3D3D3D5549206C6F636B65643D3D3D78
:01129B000052
:10167700015600016700015800015900014E0001A1
:051687004F00015A00B4
:1000030012165E7BFF7A1179AF12155D7BFF7A11B1
:10001300796B121582E56770047F0180027F00E52A
:100023004F70047E0180027E00EE5F7003020120A8
:1000330075270075280075294F752A00752B0075E3
:100043002C5A752D00752E00752F61753000753192
:100053000075324E7B007A007967120D1675270002
:1000630075280075294E752A11752B6B752C007533
:100073002D00752E617B007A00795A12129CE54E91
:10008300640370047F0180027F00E55AC394057402
:1000930080948050047E0180027E00EE5F602EE437
:1000A300F54EF55A7BFF7A12790412155D7BFF7AC0
:1000B3001279151215827F011215A77BFF7A117928
:1000C300AF12155D7BFF7A11796B121582E54E64D1
:1000D3000370047F0180027F00E55AC39405748096
:1000E300948040047E0180027E00EE5F7003020074
:1000F30018756701E4F55A0556F54E785B7C00FDEB
:10010300FB7A007961FE7F06121040E4F54FFB7A1B
:10011300007961752806FD121429020018E54F6065
:10012300030204387BFF7A11797C12155D7BFF7A19
:1001330011796B121582E567640170047F018002F7
:100143007F00E54F70047E0180027E00EE5F700346
:1001530002043875270075280075294F752A007524
:100163002B00752C5A752D00752E00752F61753077
:100173000075310075324E7B007A007967120D16D7
:1001830075270075280075294E752A11752B6B7517
:100193002C00752D00752E617B007A00795A12129E
:1001A3009CE54E640370047F0180027F00E55AC31F
:1001B30094057480948050047E0180027E00EE5F7B
:1001C300602EE4F54EF55A7BFF7A12790412155D21
:1001D3007BFF7A1279151215827F011215A77BFF17
:1001E3007A11797C12155D7BFF7A11796B12158276
:1001F300E54E640370047F0180027F00E55AC394D7
:10020300057480948040047E0180027E00EE5F705E
:1002130003020139E4F522E522C3955650597B00C8
:100223007A007950E52275F006A4FD7528061213AD
:10023300BF7F641214F2E4F523C3E52394067480AC
:100243009480502974612523F8E6FF74502523F820
:10025300E6FEB507057558018003E4F558E5232448
:1002630049FFEEFD7C001215CB052380CCE55864D5
:10027300016004052280A07F021215A7E5586003E0
:10028300020410C2A17FC81214F2D2A17BFF7A111B
:1002930079F312158205597F011215A77BFF7A1195
:1002A300796B121582E5596403600302042EF54E3F
:1002B300F55A7BFF7A12798B12155D752700752825
:1002C3000075294F752A00752B00752C5A752D0062
:1002D300752E00752F6175300075310075324E7BB8
:1002E300007A007967120D167527007528007529A5
:1002F3004E752A11752B6B752C00752D00752E61AB
:100303007B007A00795A12129CE54E640370047FD5
:100313000180027F00E55AC39405748094805004E1
:100323007E0180027E00EE5F602EE4F54EF55A7B7F
:10033300FF7A12790412155D7BFF7A127915121573
:10034300827F011215A77BFF7A11797C12155D7BE1
:10035300FF7A11796B121582AF4E7E00EF64037042
:10036300047D0180027D00E55AFB7A00C394057485
:1003730080948040047C0180027C00EC5D70030269
:1003830002A8EF64034E70047F0180027F00C3EB79
:100393009405EA6480948040047E0180027E00EE2E
:1003A3005F60437B007A007950752806E4FD1213E1
:1003B300BFE4F523C3E523940674809480501E7430
:1003C3005B2523F8E6FF74502523F8E6B50705758A
:1003D30058018005E4F5588004052380D7E5586467
:1003E3000170030202A8E558701D7BFF7A1179F3AF
:1003F3001215827F011215A77BFF7A11796B1215F3
:1004030082E4F54E02035BE4F55902035B7BFF7A5A
:1004130011798D121582C2B67F011215A77BFF7A5F
:1004230011796B121582D2B6E4F559E4F54EF55AFB
:10043300F558020139E54F6401600302077BE54F7C
:100443006401600302077B7BFF7A1179C012155D9B
:100453007BFF7A1179D112158275270075280075F3
:10046300294F752A00752B00752C5A752D00752E92
:1004730000752F6175300075310075324E7B007A3F
:10048300007967120D16E54E640370B2F54E7BFFDB
:100493007A12794712155D7BFF7A11796B121582F7
:1004A300E54E640370030207737527007528007512
:1004B300294F752A00752B00752C5A752D00752E42
:1004C30000752F6175300075310075324E7B007AEF
:1004D300007967120D16E55A70047F0180027F00D0
:1004E300E54E640270047E0180027E00EE5F6009C7
:1004F300754E03754F01755A617527007528007590
:10050300294E752A11752B6B752C00752D00752ED0
:10051300617B007A00795A12129CE54E64037004E1
:100523007F0180027F00E55AC39405748094805054
:10053300047E0180027E00EE5FFFE55A6461600481
:100543007E0180027E00EE5F602EE4F54EF55A7B5D
:10055300FF7A12790412155D7BFF7A127915121551
:10056300827F011215A77BFF7A12794712155D7BF3
:10057300FF7A11796B121582E54E640370047F01D3
:1005830080027F00E55AC394057480948040047E02
:100593000180027E00EE5FFFE55A646160047E0124
:1005A30080027E00EE5F70030204A3E4F522E522DD
:1005B300C3955650517B007A007950E52275F006B9
:1005C300A4FD7528061213BFE4F523C3E52394069F
:1005D30074809480502674612523F8E6FF745025B7
:1005E30023F8E6B5070D755801E52275F006A4F565
:1005F300578005E4F5588004052380CFE55864014E
:100603006004052280A8E558701F7BFF7A1179F3F7
:100613001215827F011215A77BFF7A11796B1215D0
:1006230082E4F54EF55A0204A3E4F54EF5587BFF38
:100633007A12795812155D7BFF7A11796B02076D77
:10064300E54E640370030204A37527007528007543
:10065300294F752A00752B00752C5A752D00752EA0
:1006630000752F6175300075310075324E7B007A4D
:10067300007967120D16E55A70047F0180027F002E
:10068300E54E640270047E0180027E00EE5F600925
:10069300754E03754F01755A6175270075280075EE
:1006A300294E752A11752B6B752C00752D00752E2F
:1006B300617B007A00795A12129CE54E6403700440
:1006C3007F0180027F00E55AC394057480948050B3
:1006D300047E0180027E00EE5FFFE55A64616004E0
:1006E3007E0180027E00EE5F602EE4F54EF55A7BBC
:1006F300FF7A12790412155D7BFF7A1279151215B0
:10070300827F011215A77BFF7A12795812155D7B40
:10071300FF7A11796B121582E54E640370047F0131
:1007230080027F00E55AC394057480948040047E60
:100733000180027E00EE5FFFE55A646160047E0182
:1007430080027E00EE5F7003020643756701E4F5E5
:100753005AF54EF54EF54FFB7A007961752806ADD3
:10076300571214297BFF7A11799E121582020643D0
:10077300E4F54EF55A020441E54F640260030200BA
:1007830018E54F640260030200187BFF7A1179C0F9
:1007930012155D7BFF7A1179E212158275270075B8
:1007A300280075294F752A00752B00752C5A752D55
:1007B30000752E00752F6175300075310075324E4E
:1007C3007B007A007967120D16E54E640370B2F56B
:1007D3004E7BFF7A12793612155DE556FD7C007F5C
:1007E3000E1215CB7B007A00793D7F0F12150F0295
:1007F300097CE54E640370030209B275270075286E
:100803000075294F752A00752B00752C5A752D001C
:10081300752E00752F6175300075310075324E7B72
:10082300007A007967120D16E55A70047F01800281
:100833007F00E54E640270047E0180027E00EE5F5D
:100843006009754E03754F02755A61752700752847
:100853000075294E752A11752B6B752C00752D00AB
:10086300752E617B007A00795A12129CE54E64035F
:1008730070047F0180027F00E55AC394057480945D
:100883008050047E0180027E00EE5FFFE55A6461C2
:1008930060047E0180027E00EE5F6043E4F54EF566
:1008A3005A7BFF7A12790412155D7BFF7A12791550
:1008B3001215827F011215A77BFF7A127936121562
:1008C3005DE556FD7C007F0E1215CB7B007A007927
:1008D3003D7F0F12150F7BFF7A11796B121582E59D
:1008E3004E640370047F0180027F00E55AC39405C0
:1008F3007480948040047E0180027E00EE5FFFE5F9
:100903005A646160047E0180027E00EE5F70030220
:1009130007F5E4F522E522C3955650497B007A009A
:100923007950E52275F006A4FD7528061213BFE47D
:10093300F523C3E523940674809480501E746125C7
:1009430023F8E6FF74502523F8E6B507057558012B
:100953008005E4F5588004052380D7E558640160D9
:1009630004052280B0E5586401701A7BFF7A12797E
:10097300691215827F011215A77BFF7A11796B1219
:1009830015820207F5E4F54FF55A0556FB7A00790F
:1009930061E55675F006A4FD7528061214297BFF40
:1009A3007A12797A1215827F011215A70207F5E4EC
:0709B300F54EF55A0207841E
:0316BA00256400A4
:0B14E7008F807F051214F2D2A77F0552
:1014F200EFD394007480948040127E70EED39400F7
:0C1502007480948040031E80F31F80E47E
:01150E0022BA
:1015A700AD07EDD394007480948040177C0AECD388
:1015B70094007480948040087F641214F21C80EEBB
:0315C7001D80DFA5
:0115CA0022FE
:0C16A200C2A7C2A6C2A51214E7C2A7226C
:0C16AE00C2A7C2A6D2A51214E7C2A72250
:10165E007F381216A27F0C1216A27F061216A27FD8
:09166E00011216A27F800216A2EF
:06155D008B248A2589267B
:101563007F801216A2E4FDAB24AA25A9268D8275DD
:0E157300830012107FFF60061216AE0D80E995
:011581002247
:061582008B2F8A30893135
:101588007FC01216A2E4FDAB2FAA30A9318D827557
:0E159800830012107FFF60061216AE0D80E970
:0115A6002222
:06150F008B3A8A3B893C87
:10151500EF2480FF1216A2E4FDAB3AAA3BA93C8D4D
:101525008275830012107FFF60061216AE0D80E9EA
:011535002293
:0215CB008F2F60
:1015CD00753DFF753E16753FBA8C408D417B007A97
:1015DD00007930120A167B007A007930AF2F021590
:0115ED000FEE
:0216BD002A0001
:060D16008B248A258926CA
:100D1C00E4F5337590F0AF90EF64F07003020DFFC3
:100D2C007F031214F2AF90EF64F07003020DFF75A5
:100D3C0090F0AF90EF2450604A24E0607B24F07078
:100D4C0003020DFC24706003020DFFAB2AAA2BA931
:100D5C002C121066C39406748094804003020DFF1D
:100D6C00AB30AA31A9327401121101AB2AAA2BA9FA
:100D7C002C121066AB2DAA2EA92FF5827583007448
:100D8C00078068AB2AAA2BA92C121066C394067490
:100D9C00809480505EAB30AA31A9327401121101DB
:100DAC00AB2AAA2BA92C121066AB2DAA2EA92FF5B3
:100DBC008275830074048033AB2AAA2BA92C1210E1
:100DCC0066C39406748094805029AB30AA31A93242
:100DDC007401121101AB2AAA2BA92C121066AB2D8F
:100DEC00AA2EA92FF58275830074011211138003AA
:100DFC0075330175900FAF90EF640F7003020F53B2
:100E0C007F031214F2AF90EF640F7003020F53754F
:100E1C00900FAF90EF24F5605324FE7003020EC9BF
:100E2C00147003020EFE24076003020F53E53364B3
:100E3C0001700BAB30AA31A9327403020F50AB2AEC
:100E4C00AA2BA92C121066C39406748094804003BC
:100E5C00020F53121066FFAB2DAA2EA92FF5827527
:100E6C00830012107F8F827583008039AB2AAA2BE6
:100E7C00A92C121066C39406748094804003020F50
:100E8C0053AB30AA31A93274011211016533AB2A6C
:100E9C00AA2BA92C7015121066AB2DAA2EA92FF512
:100EAC0082758300E4121113020F53121066AB2DDE
:100EBC00AA2EA92FF58275830074018030E5336466
:100ECC0001700AAB30AA31A93274028077AB2AAA1E
:100EDC002BA92C121066FFC3940674809480506763
:100EEC00AB2DAA2EA92F8F8275830074021210CEFF
:100EFC008055AB2AAA2BA92C12106670047F018096
:100F0C00027F00E533640170047E0180027E00EFF5
:100F1C005EFFAB24AA25A926121066640170047E1C
:100F2C000180027E00EE5F6014AB27AA28A9297409
:100F3C00011210AC1210666403700C8007AB30AA5F
:100F4C0031A932E4121101AF90EF640760F9AF9050
:100F5C00EF640B60F2AF90EF640D60EBAF90EF6459
:030F6C000E60E430
:010F6F00225F
:10129C008B248A258926AB27AA28A92912106664D3
:1012AC0001705AAB24AA25A926121066FED3940607
:1012BC00748094805032EE2449FFAB2CAA2DA92EB9
:1012CC008E8275830012107FFD7C001215CB7FFA85
:1012DC001214F2AB24AA25A9261210662449FF7B0E
:1012EC00FF7A1679BD12150FAB24AA25A926740115
:1012FC001210ACAB27AA28A929E4121101AB27AA1A
:10130C0028A9291210666402701CAA2AA92B7BFF3B
:10131C00121582AB24AA25A926E4121101AB27AA27
:07132C0028A929121101227A
:1015EE00D2B57F011214F2D2B47F011214F2C2B539
:0C15FE007F011214F2C2B47F010214F24B
:10160A00C2B47F011214F2C2B57F011214F2D2B42D
:0C161A007F011214F2D2B57F010214F21D
:0214B8008F297A
:1014BA00E4F52AE52A64086022E5293392B57F011A
:1014CA001214F2D2B47F011214F2C2B47F011214C0
:0C14DA00F2E52925E0F529052A80D8D389
:0114E60022E3
:10147E00C2B47F011214F2D2B5752908E529602293
:10148E00D2B47F011214F230B505752A018003E43F
:10149E00F52AE52B25E0F52BE52A422BC2B41529BA
:0914AE0080DA7F011214F2AF2B69
:0114B7002212
:10162600C2B57F011214F2D2B47F011214F2C2B411
:0C1636007F011214F2D2B57F010214F201
:10168D00D2B57F011214F2D2B47F011214F2C2B49A
:05169D007F010214F2C0
:10164200D2B57F011214F2D2B47F011214F2A2B504
:0B1652009200C2B47F011214F2A2004B
:01165D00226A
:101429008B248A2589268D271215EE7FA01214B8E0
:1014390012164250028023AF271214B812164250D6
:101449000312160AE5286024AB24AA25A92612103E
:1014590066FF1214B8121642500302160A740125C7
:1014690026F526E43525F525152880D812160A7F94
:051479000A1214F2222A
:1013BF008B248A2589268D271215EE7FA01214B84B
:1013CF00121642500312160AAF271214B812164201
:1013DF00500312160A1215EE7FA11214B8121642FC
:1013EF00500312160AE5286401601C12147EAB2408
:1013FF000526E526AA257002052514F9EF1211011D
:10140F00121626152880DE12147EAB24AA25A926D3
:0A141F00EF12110112168D02160AD9
:03000000021333B5
:0C133300787FE4F6D8FD75816702137A1C
:100F7000E709F608DFFA8046E709F208DFFA803E63
:100F800088828C83E709F0A3DFFA8032E309F60850
:100F9000DFFA8078E309F208DFFA807088828C83B8
:100FA000E309F0A3DFFA806489828A83E0A3F6086C
:100FB000DFFA805889828A83E0A3F208DFFA804C46
:100FC00080D280FA80C680D4806980F2803380101D
:100FD00080A680EA809A80A880DA80E280CA803386
:100FE00089828A83ECFAE493A3C8C582C8CCC583FE
:100FF000CCF0A3C8C582C8CCC583CCDFE9DEE780CE
:101000000D89828A83E493A3F608DFF9ECFAA9F04C
:10101000EDFB2289828A83ECFAE0A3C8C582C8CCA2
:10102000C583CCF0A3C8C582C8CCC583CCDFEADEBB
:10103000E880DB89828A83E493A3F208DFF980CC1D
:1010400088F0EF60010E4E60C388F0ED2402B40416
:101050000050B9F582EB2402B4040050AF232345BD
:061060008223900FC07313
:10106600BB010689828A83E0225002E722BBFE0288
:09107600E32289828A83E49322BB
:10107F00BB010CE58229F582E5833AF583E0225026
:10108F0006E92582F8E622BBFE06E92582F8E22270
:0D109F00E58229F582E5833AF583E493228A
:1010AC00BB010989828A83F8E028F022500327F7D4
:1010BC0022BBFE05F8E328F3228A838982F8E493A5
:0210CC002822D8
:1010CE00BB010FF8E58229F582E5833AF583E02826
:1010DE00F0225009C58229F8E58226F622BBFE09C8
:1010EE00C58229F8E22582F222F8EA2583F583E902
:0310FE0093282212
:10110100BB010689828A83F0225002F722BBFE01CD
:02111100F322C7
:10111300F8BB010DE58229F582E5833AF583E8F012
:10112300225006E92582C8F622BBFE05E92582C8BE
:02113300F222A6
:1009BA00E549243DF8E6054922783A300702783DB0
:1009CA00E475F0011211350210662000EB7F2ED279
:1009DA00008018EF540F2490D43440D4FF30040B15
:1009EA00EF24BFB41A0050032461FFE54A600215E0
:1009FA004A054DE54D7002054C30070D783AE4750D
:100A0A00F001121135EF0211010215367403D207F3
:100A1A008003E4C207F5498B3A8A3B893CE4F54AEC
:100A2A00F54CF54DE54A60077F201209F580F5750A
:100A3A004BFFC201C200C202C203C205C206C208FB
:100A4A001209C3FF700D3007057F00120A06AF4D69
:100A5A00AE4C22B4255FC2D5C2041209C3FF24D00A
:100A6A00B40A00501A75F00A784A30D50508B6FF5C
:100A7A000106C6A426F620D5047002D20380D92422
:100A8A00CFB41A00EF5004C2E5D204020C06D20118
:100A9A0080C6D20080C0D20280BCD2D580BAD2052C
:100AAA0080B47F201209F52002077401B54A00407C
:100ABA00F11209BAFF1209F5020A2ED208D20680EB
:100ACA00951209BAFB1209BAFA1209BAF94A4B7015
:100ADA000679D77A0C7BFF20022EE54A602A7E002F
:100AEA008E8275830012107F60060EEE654B70F0E1
:100AFA00C2D5EBC0E0EAC0E0E9C0E0EE120C4DD08E
:100B0A00E0F9D0E0FAD0E0FB121066FF60AAEBC071
:100B1A00E0EAC0E0E9C0E01209F5D0E02401F9D02A
:100B2A00E03400FAD0E0FBE54B0460DCD54BD98019
:100B3A00877BFF7A0C7949D202809C7910800279EE
:100B4A0008C206C2088008D2D5790A8004790AC286
:100B5A00D5E54B047002F54BE4FAFDFEFF1209BA23
:100B6A00FC7B082001131209BAFD7B1030000A121F
:100B7A0009BAFE1209BAFF7B20EC3382D592D5500E
:100B8A0013C3E43000069FFFE49EFEE42001039DA8
:100B9A00FDE49CFCE4CBF8C201EC700CCFCECDCCCA
:100BAA00E824F8F870F38017C3EF33FFEE33FEED55
:100BBA0033FDEC33FCEB33FB994002FB0FD8E9EB36
:100BCA00300105F8D0E0C448B201C0E00AEC4D4E4D
:100BDA004F78207B0070C2EAB54B0040BCC0E012DF
:100BEA000C4FD0F0D0E0200104C4C0E0C4B201C070
:100BFA00F01209DED0F0D5F0EB020A2E1211450AE6
:100C0A00CB530B45580A9C4C0A98420B494F0B513F
:0F0C1A00440B51490AB1430B57550B3B460B3B5B
:100C2900450B3B470CF7500AA02D0AA42E0AC72BE7
:100C39000AA8230AC5200CE02A0A604800000ABF56
:100C49003F3F3F00790AA2D5200314300509B910A6
:100C5900020404B9080104A2D520060250010420A7
:100C690002689202B54A005034C0E07F203003196F
:100C79007F30A20272067205500F120CA6C202C280
:100C890006C205C2087F30800F300503E9C0E012B3
:100C990009F5300503D0E0F9D0E0B54ACC300517A5
:100CA9007F30B9100C1209F57F583004077F78801E
:100CB90003B908031209F53002057F2D0209F57FF2
:100CC900202008F87F2B2006F322920280CF286E7D
:100CD900756C6C2900D2011209BA3001F8C2017889
:100CE9004A30D50108F6020A602D504349581209C5
:100CF900BA2403B405004001E4900CF2931209E60A
:0D0D0900743A1209E6D203754A04020B4544
:10133F00020003E493A3F8E493A34003F68001F2C1
:10134F0008DFF48029E493A3F85407240CC8C333AF
:10135F00C4540F4420C8834004F456800146F6DF7E
:10136F00E4800B0102040810204080901677E47E81
:10137F00019360BCA3FF543F30E509541FFEE49373
:10138F00A360010ECF54C025E060A840B8E493A33A
:10139F00FAE493A3F8E493A3C8C582C8CAC583CA65
:1013AF00F0A3C8C582C8CAC583CADFE9DEE780BE1D
:01168C00005D
:10113500FAE6FB0808E6F925F0F618E6CA3AF622BB
:10114500D083D082F8E4937012740193700DA3A339
:1011550093F8740193F5828883E47374029368604D
:06116500EFA3A3A380DF4D
:10153600EFB40A07740D121541740A309811A89970
:10154600B8130CC2983098FDA899C298B811F63015
:0715560099FDC299F59922ED
:00000001FF
