:101167003D0070617373776F72643A2020202020EE
:101177002020003D3D3D436F646564204C6F636BE9
:101187003D3D3D002020202020206F70656E2020EF
:101197002020202000526573657450617373776F48
:1011A70072644F4B2000496E6974207061737377C6
:1011B7006F72642E2E2E003D3D4D6F646520536582
:1011C7007474696E673D3D002D4368616E676520E5
:1011D70050617373776F7264002D416464204E65AC
:1011E700772055736572202020006572726F722C0C
:1011F70074727920616761696E21005761726E3A76
:1012070041204C656E7468206F66200070617373AF
:10121700776F72642069732073697800696E7075DF
:101227007420616761696E2020202020003D4164A1
:101237006D696E6973747261746F722020003D3D31
:101247004F6C642050617373776F72643D3D003D4E
:101257003D4E65772050617373776F72643D3D0033
:101267002D50617373776F72642065786973747337
:1012770000416464696E67207375636365656465BF
:1012870064003D3D3D3D5549206C6F636B65643D92
:031297003D3D00DA
:1015CA00015600016700015800015900014E00014F
:0515DA004F00015A0062
:1000030012159A7BFF7A1179AD1214E67BFF7A11F0
:10001300796912150BE56770047F0180027F00E5A3
:100023004F70047E0180027E00EE5F7003020120A8
:1000330075270075280075294F752A00752B0075E3
:100043002C5A752D00752E00752F61753000753192
:100053000075324E7B007A007967120D1275270006
:1000630075280075294E752A11752B69752C007535
:100073002D00752E617B007A00795A12129AE54E93
:10008300640370047F0180027F00E55AC394057402
:1000930080948050047E0180027E00EE5F602EE437
:1000A300F54EF55A7BFF7A1279021214E67BFF7A3A
:1000B30012791312150B7F011215307BFF7A117918
:1000C300AD1214E67BFF7A11796912150BE54E64C4
:1000D3000370047F0180027F00E55AC39405748096
:1000E300948040047E0180027E00EE5F7003020074
:1000F30018756701E4F55A0556F54E785B7C00FDEB
:10010300FB7A007961FE7F0612103CE4F54FFB7A1F
:10011300007961752806FD121403020018E54F608B
:10012300030204217BFF7A11797A1214E67BFF7AAA
:1001330011796912150BE567640170047F01800270
:100143007F00E54F70047E0180027E00EE5F700346
:1001530002042175270075280075294F752A00753B
:100163002B00752C5A752D00752E00752F61753077
:100173000075310075324E7B007A007967120D12DB
:1001830075270075280075294E752A11752B697519
:100193002C00752D00752E617B007A00795A12129E
:1001A3009AE54E640370047F0180027F00E55AC321
:1001B30094057480948050047E0180027E00EE5F7B
:1001C300602EE4F54EF55A7BFF7A1279021214E69B
:1001D3007BFF7A12791312150B7F011215307BFF07
:1001E3007A11797A1214E67BFF7A11796912150B69
:1001F300E54E640370047F0180027F00E55AC394D7
:10020300057480948040047E0180027E00EE5F705E
:1002130003020139E4F522E522C3955650597B00C8
:100223007A007950E52275F007A4FD7528061213AC
:10023300BD7F6412147BE4F523C3E5239406748025
:100243009480502974612523F8E6FF74502523F820
:10025300E6FEB507057558018003E4F558E5232448
:1002630049FFEEFD7C00121554052380CCE558644C
:10027300016004052280A07F02121530E558600357
:100283000203F9C2A17FC812147BD2A17BFF7A11AA
:1002930079F112150B05597F011215307BFF7A1185
:1002A300796912150BE55964037004F55AF54EE5A7
:1002B30059640360030204177BFF7A1279891214CD
:1002C300E675270075280075294F752A00752B00E0
:1002D300752C5A752D00752E00752F6175300075BC
:1002E300310075324E7B007A007967120D12752743
:1002F3000075280075294E752A11752B69752C0018
:10030300752D00752E617B007A00795A12129AE5D9
:100313004E640370047F0180027F00E55AC3940595
:100323007480948050047E0180027E00EE5F601F23
:10033300E4F54EF55A7BFF7A1279021214E67BFF3D
:100343007A12791312150B7F011215300203E4E5BB
:100353004E640370047F0180027F00E55AC3940555
:100363007480948040047E0180027E00EE5F7003FF
:100373000202B27B007A007950752806E4FD12135D
:10038300BDE4F523C3E523940674809480502A7456
:100393005B2523F8E6FE74502523F8E6B5060575BC
:1003A30058018005E4F5588010E5232449FFEEFD4C
:1003B3007C00121554052380CBE558701F7BFF7A10
:1003C3001179F112150B7F011215307BFF7A117928
:1003D3006912150BE4F54EF55A020352E4F559F58B
:1003E3005A7BFF7A11797A1214E67BFF7A117969C5
:1003F30012150B0203527BFF7A11798B12150BC274
:10040300B67F011215307BFF7A11796912150BD271
:10041300B6E4F559E4F54EF55AF558020139E54FBE
:100423006401600302076CE54F6401600302076C1B
:100433007BFF7A1179BE1214E67BFF7A1179CF1212
:10044300150B75270075280075294F752A00752B24
:1004530000752C5A752D00752E00752F61753000AF
:1004630075310075324E7B007A007967120D12E503
:100473004E640370B2F54E7BFF7A1279451214E68F
:100483007BFF7A11796912150BE54E640370030241
:10049300076475270075280075294F752A00752B89
:1004A30000752C5A752D00752E00752F617530005F
:1004B30075310075324E7B007A007967120D12E5B3
:1004C3005A70047F0180027F00E54E640270047E4F
:1004D3000180027E00EE5F6009754E03754F017562
:1004E3005A6175270075280075294E752A11752BD9
:1004F30069752C00752D00752E617B007A00795A81
:1005030012129AE54E640370047F0180027F00E5B6
:100513005AC394057480948050047E0180027E0047
:10052300EE5FFFE55A646160047E0180027E00EEA7
:100533005F602EE4F54EF55A7BFF7A1279021214AE
:10054300E67BFF7A12791312150B7F011215307BAC
:10055300FF7A1279451214E67BFF7A117969121535
:100563000BE54E640370047F0180027F00E55AC3EC
:1005730094057480948040047E0180027E00EE5FC7
:10058300FFE55A646160047E0180027E00EE5F70C5
:100593000302048CE4F522E522C3955650517B00F7
:1005A3007A007950E52275F007A4FD752806121329
:1005B300BDE4F523C3E52394067480948050267428
:1005C300612523F8E6FF74502523F8E6B5070D757A
:1005D3005801E52275F007A4F5578005E4F5588026
:1005E30004052380CFE55864016004052280A8E553
:1005F30058701F7BFF7A1179F112150B7F011215C9
:10060300307BFF7A11796912150BE4F54EF55A0226
:10061300048CE4F54EF558F55A7BFF7A127956129D
:1006230014E67BFF7A11796912150BE54E640370AA
:100633000302048C75270075280075294F752A005D
:10064300752B00752C5A752D00752E00752F61754D
:10065300300075310075324E7B007A007967120DD8
:1006630012E55A70047F0180027F00E54E64027038
:10067300047E0180027E00EE5F6009754E03754FB4
:1006830001755A6175270075280075294E752A1161
:10069300752B69752C00752D00752E617B007A0012
:1006A300795A12129AE54E640370047F0180027F27
:1006B30000E55AC394057480948050047E0180023F
:1006C3007E00EE5FFFE55A646160047E0180027E76
:1006D30000EE5F602EE4F54EF55A7BFF7A12790245
:1006E3001214E67BFF7A12791312150B7F01121590
:1006F300307BFF7A1279561214E67BFF7A117969FF
:1007030012150BE54E640370047F0180027F00E540
:100713005AC394057480948040047E0180027E0055
:10072300EE5FFFE55A646160047E0180027E00EEA5
:100733005F700302062E756701E4F55AF54E754E98
:1007430003F54FFB7A007961752806AD5712140340
:100753007BFF7A11799C12150B7F0112153002066B
:100763002EE4F54EF55A02042AE54F6402600302B3
:100773000018E54F640260030200187BFF7A1179C9
:10078300BE1214E67BFF7A1179E012150B75270070
:1007930075280075294F752A00752B00752C5A751D
:1007A3002D00752E00752F6175300075310075327F
:1007B3004E7B007A007967120D12E54E640370B226
:1007C300F54E7BFF7A1279341214E6E556FD7C0070
:1007D3007F0E1215547BFF7A1179677F0F121498DD
:1007E3007BFF7A11796912150BE54E6403700302DE
:1007F30009AE75270075280075294F752A00752BDA
:1008030000752C5A752D00752E00752F61753000FB
:1008130075310075324E7B007A007967120D12E54F
:100823005A70047F0180027F00E54E640270047EEB
:100833000180027E00EE5F6009754E03754F0275FD
:100843005A6175270075280075294E752A11752B75
:1008530069752C00752D00752E617B007A00795A1D
:1008630012129AE54E640370047F0180027F00E553
:100873005AC394057480948050047E0180027E00E4
:10088300EE5FFFE55A646160047E0180027E00EE44
:100893005F6043E4F54EF55A7BFF7A127902121436
:1008A300E67BFF7A12791312150B7F011215307B49
:1008B300FF7A1279341214E6E556FD7C007F0E129E
:1008C30015547BFF7A1179677F0F1214987BFF7A97
:1008D30011796912150BE54E640370047F018002E0
:1008E3007F00E55AC394057480948040047E0180A0
:1008F300027E00EE5FFFE55A646160047E018002C0
:100903007E00EE5F70030207ECE4F522E522C39557
:100913005650497B007A007950E52275F007A4FD13
:100923007528061213BDE4F523C3E52394067480EA
:100933009480501E74612523F8E6FF74502523F834
:10094300E6B507057558018005E4F55880040523CD
:1009530080D7E55864016004052280B0E55864013E
:10096300701F7BFF7A12796712150B7F0112153006
:100973007BFF7A11796912150BE4F54EF55A0207DC
:10098300ECE4F54FF55A0556FB7A007961E55675A7
:10099300F007A4FD7528061214037BFF7A127978F9
:1009A30012150B7F011215300207ECE4F54EF55AD0
:0309B300020775C3
:0316250025640039
:0B1470008F807F0512147BD2A77F0540
:10147B00EFD394007480948040127E70EED394006E
:0C148B007480948040031E80F31F80E4F6
:011497002232
:10153000AD07EDD394007480948040177C0AECD3FF
:1015400094007480948040087F6412147B1C80EEA9
:031550001D80DF1C
:011553002275
:0C160D00C2A7C2A6C2A5121470C2A72278
:0C161900C2A7C2A6D2A5121470C2A7225C
:10159A007F3812160D7F0C12160D7F0612160D7F5C
:0915AA000112160D7F8002160DDE
:0614E6008B248A258926F3
:1014EC007F8012160DE4FDAB24AA25A9268D8275EA
:0E14FC00830012107BFF60061216190D80E9A6
:01150A0022BE
:06150B008B2F8A308931AC
:101511007FC012160DE4FDAB2FAA30A9318D827563
:0E152100830012107BFF60061216190D80E980
:01152F002299
:061498008B3A8A3B893CFF
:10149E00EF2480FF12160DE4FDAB3AAA3BA93C8D5A
:1014AE008275830012107BFF60061216190D80E9FB
:0114BE00220B
:021554008F2FD7
:10155600753DFF753E16753F258C408D417B007AA3
:10156600007930120A127B007A007930AF2F02140C
:0115760098DC
:021628002A0096
:060D12008B248A258926CE
:100D1800E4F5337590F0AF90EF64F07003020DFBCB
:100D28007F0312147BAF90EF64F07003020DFB7524
:100D380090F0AF90EF2450604A24E0607B24F0707C
:100D480003020DF824706003020DFBAB2AAA2BA93D
:100D58002C121062C39406748094804003020DFB29
:100D6800AB30AA31A93274011210FDAB2AAA2BA903
:100D78002C121062AB2DAA2EA92FF5827583007450
:100D8800078068AB2AAA2BA92C121062C394067498
:100D9800809480505EAB30AA31A93274011210FDE4
:100DA800AB2AAA2BA92C121062AB2DAA2EA92FF5BB
:100DB8008275830074048033AB2AAA2BA92C1210E5
:100DC80062C39406748094805029AB30AA31A9324A
:100DD80074011210FDAB2AAA2BA92C121062AB2D9C
:100DE800AA2EA92FF582758300740112110F8003B2
:100DF80075330175900FAF90EF640F7003020F4FBA
:100E08007F0312147BAF90EF640F7003020F4F75CE
:100E1800900FAF90EF24F5605324FE7003020EC5C7
:100E2800147003020EFA24076003020F4FE53364BF
:100E380001700BAB30AA31A9327403020F4CAB2AF4
:100E4800AA2BA92C121062C39406748094804003C4
:100E5800020F4F121062FFAB2DAA2EA92FF5827533
:100E6800830012107B8F827583008039AB2AAA2BEE
:100E7800A92C121062C39406748094804003020F58
:100E88004FAB30AA31A93274011210FD6533AB2A79
:100E9800AA2BA92C7015121062AB2DAA2EA92FF51A
:100EA80082758300E412110F020F4F121062AB2DEE
:100EB800AA2EA92FF58275830074018030E533646A
:100EC80001700AAB30AA31A93274028077AB2AAA22
:100ED8002BA92C121062FFC394067480948050676B
:100EE800AB2DAA2EA92F8F8275830074021210CA07
:100EF8008055AB2AAA2BA92C12106270047F01809E
:100F0800027F00E533640170047E0180027E00EFF9
:100F18005EFFAB24AA25A926121062640170047E24
:100F28000180027E00EE5F6014AB27AA28A929740D
:100F3800011210A81210626403700C8007AB30AA6B
:100F480031A932E41210FDAF90EF640760F9AF9059
:100F5800EF640B60F2AF90EF640D60EBAF90EF645D
:030F68000E60E434
:010F6B002263
:10129A008B248A258926AB27AA28A92912106264D9
:1012AA0001705AAB24AA25A926121062FED394060D
:1012BA00748094805032EE2449FFAB2CAA2DA92EBB
:1012CA008E8275830012107BFD7C001215547FFA02
:1012DA0012147BAB24AA25A9261210622449FF7B8B
:1012EA00FF7A167928121498AB24AA25A926740124
:1012FA001210A8AB27AA28A929E41210FDAB27AA25
:10130A0028A9291210626402701CAA2AA92B7BFF41
:10131A0012150BAB24AA25A926E41210FDAB27AAA5
:07132A0028A9291210FD2281
:0F15E000D2B5D2B400000000C2B5000000002256
:0F15EF00C2B5D2B400000000D2B5000000002247
:0815B3001215E07FA01215776C
:0F15BB00C2B500000000D2B400000000C2B4228C
:0F15FE00D2B500000000D2B400000000C2B42239
:101577007E08AD07C2B400000000ED54806480709F
:1015870004D2B58002C2B5D2B4EF25E0FDFFDEE29A
:02159700C2B4DC
:01159900222F
:10144600E4FFFE7D08D2B5C2B400000000D2B400AD
:1014560000000030B50543070180035307FEED1475
:091466006005EF25E0FEFFDDDE6C
:01146F00225A
:021403008D2733
:101405008B2A8A2B892CE4F529E529C395285030A8
:101415001215B3E5272529FF1215771215BBAB2A3F
:10142500AA2BA92C85298275830012107BFF121522
:10143500771215BB1215EF7F1412147B052980C98D
:011445002284
:0213BD008D277A
:1013BF008B298A2A892BE4FCECC39528503512150A
:1013CF00B3E5272CFF1215771215BB1215E07FA17D
:1013DF001215771215BB121446AB29AA2AA92B8C0A
:1013EF0082758300EF12110FC2B41215FE1215EFA2
:0313FF000C80C59A
:0114020022C7
:03000000021331B7
:0C133100787FE4F6D8FD75816702137820
:100F6C00E709F608DFFA8046E709F208DFFA803E67
:100F7C0088828C83E709F0A3DFFA8032E309F60854
:100F8C00DFFA8078E309F208DFFA807088828C83BC
:100F9C00E309F0A3DFFA806489828A83E0A3F60870
:100FAC00DFFA805889828A83E0A3F208DFFA804C4A
:100FBC0080D280FA80C680D4806980F28033801021
:100FCC0080A680EA809A80A880DA80E280CA80338A
:100FDC0089828A83ECFAE493A3C8C582C8CCC58302
:100FEC00CCF0A3C8C582C8CCC583CCDFE9DEE780D2
:100FFC000D89828A83E493A3F608DFF9ECFAA9F051
:10100C00EDFB2289828A83ECFAE0A3C8C582C8CCA6
:10101C00C583CCF0A3C8C582C8CCC583CCDFEADEBF
:10102C00E880DB89828A83E493A3F208DFF980CC21
:10103C0088F0EF60010E4E60C388F0ED2402B4041A
:10104C000050B9F582EB2402B4040050AF232345C1
:06105C008223900FBC731B
:10106200BB010689828A83E0225002E722BBFE028C
:09107200E32289828A83E49322BF
:10107B00BB010CE58229F582E5833AF583E022502A
:10108B0006E92582F8E622BBFE06E92582F8E22274
:0D109B00E58229F582E5833AF583E493228E
:1010A800BB010989828A83F8E028F022500327F7D8
:1010B80022BBFE05F8E328F3228A838982F8E493A9
:0210C8002822DC
:1010CA00BB010FF8E58229F582E5833AF583E0282A
:1010DA00F0225009C58229F8E58226F622BBFE09CC
:1010EA00C58229F8E22582F222F8EA2583F583E906
:0310FA0093282216
:1010FD00BB010689828A83F0225002F722BBFE01D2
:02110D00F322CB
:10110F00F8BB010DE58229F582E5833AF583E8F016
:10111F00225006E92582C8F622BBFE05E92582C8C2
:02112F00F222AA
:1009B600E549243DF8E6054922783A300702783DB4
:1009C600E475F0011211310210622000EB7F2ED285
:1009D600008018EF540F2490D43440D4FF30040B19
:1009E600EF24BFB41A0050032461FFE54A600215E4
:1009F6004A054DE54D7002054C30070D783AE47511
:100A0600F001121131EF0210FD0214BF7403D20778
:100A16008003E4C207F5498B3A8A3B893CE4F54AF0
:100A2600F54CF54DE54A60077F201209F180F57512
:100A36004BFFC201C200C202C203C205C206C208FF
:100A46001209BFFF700D3007057F00120A02AF4D75
:100A5600AE4C22B4255FC2D5C2041209BFFF24D012
:100A6600B40A00501A75F00A784A30D50508B6FF60
:100A76000106C6A426F620D5047002D20380D92426
:100A8600CFB41A00EF5004C2E5D204020C02D20120
:100A960080C6D20080C0D20280BCD2D580BAD20530
:100AA60080B47F201209F12002077401B54A004084
:100AB600F11209B6FF1209F1020A2AD208D20680FB
:100AC600951209B6FB1209B6FA1209B6F94A4B7025
:100AD6000679D37A0C7BFF20022EE54A602A7E0037
:100AE6008E8275830012107B60060EEE654B70F0E9
:100AF600C2D5EBC0E0EAC0E0E9C0E0EE120C49D096
:100B0600E0F9D0E0FAD0E0FB121062FF60AAEBC079
:100B1600E0EAC0E0E9C0E01209F1D0E02401F9D032
:100B2600E03400FAD0E0FBE54B0460DCD54BD9801D
:100B3600877BFF7A0C7945D202809C7910800279F6
:100B460008C206C2088008D2D5790A8004790AC28A
:100B5600D5E54B047002F54BE4FAFDFEFF1209B62B
:100B6600FC7B082001131209B6FD7B1030000A1227
:100B760009B6FE1209B6FF7B20EC3382D592D5501A
:100B860013C3E43000069FFFE49EFEE42001039DAC
:100B9600FDE49CFCE4CBF8C201EC700CCFCECDCCCE
:100BA600E824F8F870F38017C3EF33FFEE33FEED59
:100BB60033FDEC33FCEB33FB994002FB0FD8E9EB3A
:100BC600300105F8D0E0C448B201C0E00AEC4D4E51
:100BD6004F78207B0070C2EAB54B0040BCC0E012E3
:100BE6000C4BD0F0D0E0200104C4C0E0C4B201C078
:100BF600F01209DAD0F0D5F0EB020A2A1211410AF6
:100C0600C7530B41580A984C0A94420B454F0B4D5B
:0F0C1600440B4D490AAD430B53550B37460B3773
:100C2500450B37470CF3500A9C2D0AA02E0AC32BFF
:100C35000AA4230AC1200CDC2A0A5C4800000ABB6E
:100C45003F3F3F00790AA2D5200314300509B910AA
:100C5500020404B9080104A2D520060250010420AB
:100C650002689202B54A005034C0E07F2030031973
:100C75007F30A20272067205500F120CA2C202C288
:100C850006C205C2087F30800F300503E9C0E012B7
:100C950009F1300503D0E0F9D0E0B54ACC300517AD
:100CA5007F30B9100C1209F17F583004077F788026
:100CB50003B908031209F13002057F2D0209F17FFE
:100CC500202008F87F2B2006F322920280CF286E81
:100CD500756C6C2900D2011209B63001F8C2017891
:100CE5004A30D50108F6020A5C2D504349581209CD
:100CF500B62403B405004001E4900CEE931209E21A
:0D0D0500743A1209E2D203754A04020B4150
:10133D00020003E493A3F8E493A34003F68001F2C3
:10134D0008DFF48029E493A3F85407240CC8C333B1
:10135D00C4540F4420C8834004F456800146F6DF80
:10136D00E4800B01020408102040809015CAE47E31
:10137D00019360BCA3FF543F30E509541FFEE49375
:10138D00A360010ECF54C025E060A840B8E493A33C
:10139D00FAE493A3F8E493A3C8C582C8CAC583CA67
:1013AD00F0A3C8C582C8CAC583CADFE9DEE780BE1F
:0115DF00000B
:10113100FAE6FB0808E6F925F0F618E6CA3AF622BF
:10114100D083D082F8E4937012740193700DA3A33D
:1011510093F8740193F5828883E473740293686051
:06116100EFA3A3A380DF51
:1014BF00EFB40A07740D1214CA740A309811A89960
:1014CF00B8130CC2983098FDA899C298B811F6308D
:0714DF0099FDC299F5992265
:00000001FF
